:020000040800F2
:100000000000022051A300084DA300084DA30008E2
:100010004DA300084DA300084DA3000800000000F8
:100020000000000000000000000000004DA30008D8
:100030004DA30008000000004DA300084DA30008D8
:100040004DA300084DA300084DA300084DA30008D0
:100050004DA300084DA300084DA300084DA30008C0
:100060004DA300084DA300084DA300084DA30008B0
:100070004DA300084DA300084DA300084DA30008A0
:100080004DA300084DA300084DA300084DA3000890
:100090004DA300084DA300084DA300084DA3000880
:1000A0004DA300084DA300084DA300084DA3000870
:1000B000D94F00084DA300084DA300084DA3000828
:1000C0004DA300084DA300084DA300084DA3000850
:1000D0004DA30008E17600084DA300084DA30008D9
:1000E0004DA300084DA300084DA300084DA3000830
:1000F0004DA300084DA300084DA300084DA3000820
:100100004DA300084DA300084DA300084DA300080F
:100110004DA30008B57900084DA300084DA30008C1
:100120004DA300084DA300084DA300084DA30008EF
:100130004DA300084DA300084DA300084DA30008DF
:100140004DA300084DA300084DA300084DA30008CF
:100150004DA300084DA300084DA300084DA30008BF
:100160004DA300084DA300084DA300084DA30008AF
:100170004DA300084DA300084DA300084DA300089F
:100180004DA300084DA30008044B05481B1A062B7D
:1001900002D9044B03B11847704700BF93060020F3
:1001A000900600200000000005490648091A891041
:1001B00001EBD171491002D0034B03B118477047CE
:1001C00090060020900600200000000010B5064CAC
:1001D000237843B9FFF7D8FF044B13B10448AFF3BA
:1001E00000800123237010BD900600200000000055
:1001F000E8F2000808B5084B1BB108480849AFF3FE
:1002000000800848036813B9BDE80840CCE7064BF6
:10021000002BF9D09847F7E700000000E8F200084B
:10022000940600208C06002000000000134B002BD9
:1002300008BF114B9D46A3F5803A00218B460F461F
:100240001148124A121A0AF0FCFD0D4B002B00D087
:1002500098470C4B002B00D0984700200021040049
:100260000D000B480AF07DFD0AF0AAFD20002900D0
:1002700002F09AFF0AF07CFD000008000000000078
:10028000000000000000000090060020D8B100200F
:1002900099AD000838B54FF4FA61044604F11C0525
:1002A00002F0FAFF0C2204F1100000210AF0C9FD4F
:1002B00004F13C022B46002123F8021B9342FAD1A1
:1002C00004F2EC42002103F8011B9342FAD1F0231F
:1002D000C4F8F034A4F8EC14A4F8EE142846202254
:1002E0000AF0AFFD0523237409236382024B636187
:1002F000A561204638BD00BF04000020222A70B549
:1003000006460C460ED102F0D9FF20280CD904F184
:10031000210514F8011F304603F012F8AC42F8D161
:10032000002070BD042070BD052070BD10B50023F5
:100330008EB001F0C004802C02AA08D0C02C03D0DB
:1003400044B94FF63A6407E040F2525404E04FF4E7
:10035000E37401E04FF6AE2422F813400133890024
:10036000042BC9B2E5D11146103004AA0AF054F8A2
:10037000002300930348022104AA142301F046FE3F
:100380000EB010BDEC0F0020B0F8EC3470B5044690
:1003900043B902F0B5FF48BB04E0A4F8EC24002305
:1003A000A4F8EE34B4F8EC34002B44D0224801F029
:1003B00087FE0546142D18D9B4F8EE345A1C234490
:1003C000A4F8EE2493F83C102046FFF7AFFFB4F8F2
:1003D000EE24B4F8EC34143D9A42ADB2EAD30023D3
:1003E000A4F8EE34A4F8EC3470BD70BD134B1B7848
:1003F000ABB104F13B0304F183065F2203F8012F44
:10040000B342FAD104F16205204602F0BFFF05F8BD
:10041000010FB542F8D14823A4F8EC34BFE7D4F873
:10042000F024591C9BB29342B7D223445F2083F837
:100430003C000B46F5E770BDEC0F00205C78002017
:1004400008B502F03BFF2323B0FBF3F0C0B208BDB8
:100450000C234FF4167203FB0121B1F5966F8ABF8E
:100460004FF49663C0F8F014C0F8F034704770474A
:10047000B1F5006F10D34FF4802321F4FF6222F016
:1004800007024AB10B4201D15B08FBE7D80A40F6EC
:10049000754242435140F0E70846704710B54C782A
:1004A0000B78E40004EBC3238C7803EB541421464F
:1004B000FFF7DEFF034B53F8203003B15C40C4F379
:1004C000C72010BDA4B50008F7B51F460B7B4D7BB8
:1004D0000C7DC97C9B0043EA95138900AD0025F093
:1004E0003F0501F03C01294341EA9411A4008DF835
:1004F000051024F00F0401A916468DF804308DF87C
:100500000640FFF7CBFF030900F00F00337038708F
:1005100003B0F0BD02F00F0270B542EA01111C7B7E
:10052000124AC9B224F03F0432F8110044EA91049F
:100530001C735C7BC5B2AE0804F00F0406F03002F9
:1005400044EA811111431A7D5973D97C02F00302E8
:10055000800A06F00F0621F00F0142EA851200F032
:100560003C0031431043D974187570BDA4B3000822
:1005700000220270428070471FB50446994802F07D
:10058000E3FA2378002B00F02A81964802F09AFBC8
:10059000042840F224810023934A01A99A5C5A540A
:1005A00001330C2BF8D162881520B2FBF0F300FB6D
:1005B00013239BB2002B00F0E080012A04D13023EA
:1005C0008DF80D3002239EE0022A01D1342397E0FA
:1005D000032A04D131238DF80D306F2393E0042AD0
:1005E00007D11F238DF80D302B238DF80E30F62305
:1005F000C1E0052A04D132238DF80D3022238EE08C
:10060000062A07D124238DF80D302A238DF80E30C9
:10061000E023B0E0072A04D133238DF80D303B23CB
:100620007DE0082A77D0012B07D125238DF80D30E6
:100630004F238DF80E3093239DE0022B07D17023BA
:100640008DF80D300B238DF80E30DA2393E0032B59
:1006500001D1252310E0042B04D133238DF80D3074
:100660001B235CE0052B04D125238DF80D306F236F
:100670003DE0062B04D139238DF80D301D235AE0BF
:10068000072B07D125238DF80D300C238DF80E3064
:10069000C72370E0082B04D150238DF80D306F2351
:1006A00007E0092A77D0092B07D125238DF80D30D3
:1006B0001E238DF80E30D0235DE00A2A6ED00A2B5F
:1006C00007D121238DF80D300C238DF80E30C22375
:1006D00051E00B2A65D00B2B01D125231CE00C2AFD
:1006E00062D00C2B07D13D238DF80D3002238DF8FD
:1006F0000E30D7233FE00D2A59D00D2B07D12523EB
:100700008DF80D3019238DF80E30DE2333E00E2ADC
:1007100050D00E2B07D150238DF80D306F238DF85C
:100720000E30B32327E00F2A56D00F2B07D12523F5
:100730008DF80D301B238DF80E30D6231BE0102AC8
:100740000BD0102B07D123238DF80D301B238DF8F0
:100750000E303A230FE0112A06D0112B04D12123A9
:100760008DF80D30252303E016238DF80D30292355
:100770008DF80E30F5238DF80F300C22194802F059
:100780009FF8638840F276210133B3FBF1F201FB5D
:100790001233638023E00A2B0FD192E70B2B0FD18A
:1007A0009BE70C2B0FD19EE70D2B0FD1A7E70E2B4C
:1007B0000FD1B0E70F2B0FD1B9E70B2B91D18CE7FD
:1007C0000C2B9AD18FE70D2BA3D198E70E2BACD130
:1007D000A1E70F2BB5D1AAE7102BBED1B3E704B028
:1007E00010BD00BFC02F0020CDD50008012A38B5AC
:1007F000054614D10C78631E5C425C4103783CB121
:1008000053B9438007490848292202F033F803E02E
:1008100013B1054802F07AF82C70002038BD04208E
:1008200038BD00BFA4D50008C02F002010B5024677
:10083000044600F58071002302F8013B8A42FAD198
:1008400084F8003184F8013184F8023104F58270B3
:100850004FF4FA6102F020FD204610BD1FB5702252
:100860008DF80E2082788DF80F20E02300228DF87D
:100870000C3000920423012103AA8DF80D3007F0FB
:10088000D4F905B05DF804FB1FB57F228DF80A206E
:1008900082788DF80B20E02300228DF808308DF847
:1008A0000C1005230092012102AA8DF8093007F0EF
:1008B000BCF905B05DF804FB2DE9F043814689B031
:1008C000684801F096FE00228DF81320664AE02366
:1008D0008DF8103011780B238DF8113001238DF82D
:1008E0001230904609B18DF81330604F3B782BB130
:1008F0009DF8133043F002038DF813305C4E3378CB
:100900002BB19DF8133043F004038DF81330594D8B
:100910002B782BB19DF8133043F008038DF813307A
:10092000554C23782BB19DF8133043F010038DF80C
:100930001330524B4B481B788DF81430504B0DF14F
:100940000E011B788DF815300DF10F0201F039FE04
:100950009DF80E302BB19DF8153043F002038DF851
:100960001530404801F042FE28B19DF8153043F0A3
:1009700004038DF815303B4801F035FE28B19DF891
:10098000153043F008038DF81530364801F038FE75
:1009900028B19DF8153043F010038DF815309DF8FF
:1009A0000F302BB19DF8153043F020038DF8153032
:1009B000344A9DF815301278002A14BF40220022D4
:1009C00013438DF8153098F800302BB12E4802F003
:1009D00079F98DF8160001E08DF816303B78A3B157
:1009E0002A4B1B7843B12A4807F0AEFA8DF817005E
:1009F000274807F0B1FA05E00A2326488DF817309A
:100A0000FFF71EFD8DF8180003E08DF817308DF804
:100A1000183033782BB1204801F0ECFE8DF8190026
:100A200001E08DF819302B782BB11C4804F048FDFB
:100A30008DF81A0001E08DF81A3023782BB1184890
:100A400006F092FD8DF81B0001E08DF81B300023AD
:100A500000934846012104AA0C2307F0E6F809B0E8
:100A6000BDE8F083EC0F0020500200204F02002070
:100A70004E020020510200204D020020946E002002
:100A80005C780020956E0020C02F00204C020020D2
:100A9000986E002000A400205C8F0020846F00204E
:100AA0000869002010B59CB0E0238DF80C300022BE
:100AB00001238DF80E208DF80F30D1B2094C615C06
:100AC000131DDBB2013221B11CAC234403F8641CBA
:100AD000F3E7009103AA01218DF80D3007F0A5F886
:100AE0001CB010BDB4D800082DE9F04F0F2A91B00A
:100AF00001D80420B4E00E78C6F3001380F8023168
:100B00008F784878322FF4D8CA78052A00F0010B84
:100B1000C0F3400CC0F3800EC0F3C003C0F300105C
:100B200008D9A2F16204012C1FD9A2F15B04052CA3
:100B3000DFD81AE0012A03D1BBF1000FD9D014E0AD
:100B4000022A03D1BCF1000FD3D00EE0032A03D157
:100B5000BEF1000FCDD008E0042A02D1002BC8D08E
:100B600003E0052A01D10028C3D091F806800C7952
:100B70000A94B8F10F0FBCD84C790B944C7A0C94B2
:100B80008C7A0D94CC7A0E940C7B91F807A04D7B57
:100B900091F80F900F948C7B33490A70334A82F896
:100BA00000B0334A82F800C0324A82F800E0324A8C
:100BB0001370324B324A1870F343C3F3C0133148F9
:100BC0001370394602F06EF82F48394601F002FEE4
:100BD0002E48394604F064FC2D483946FFF738FCAE
:100BE0002C48394606F0B0FC2B48414607F018FB6C
:100BF0002A48414606F050F92848514606F058F96F
:100C00002748414605F0AEFA2648414602F038FA38
:100C10001D48C6F3C00101F0F5FD0A9B00930B9B34
:100C200001930C9B0293803D0D9B0393803C0E9B94
:100C30000493ADB2A4B20F9B05932DB224B21A480F
:100C4000CDF8189006F00101C6F34002C6F3800308
:100C50000795089401F06CFC134801F077FA002026
:100C600011B0BDE8F08F00BF946E0020500200204C
:100C70004F0200204E020020510200204D020020B1
:100C80004C020020C02F00205C8F0020846F0020C9
:100C900000A4002008690020986E0020181300208E
:100CA000A07800209C0A0020EC0F002010B5012144
:100CB00004464FF4E13206F08DFF204603214FF445
:100CC0001652BDE8104006F085BF000070B5164B07
:100CD0001B78012B90B024D8144B1B780BB3E02366
:100CE0008DF80C3010238DF80E300D46CEB2ECB2DC
:100CF000C6F103032344A41BE4B29442DBB206D240
:100D000010AE334415F8014B03F8344CEEE7D31C16
:100D10000022DBB20092012103AA8DF80D3006F00B
:100D200084FF10B070BD00BF946E00205002002000
:100D300070B5164B1B78012B88B024D8144B1B7848
:100D40000BB3E0238DF80C3011238DF80E300D46D7
:100D5000CEB2ECB2C6F103032344A41BE4B2944226
:100D6000DBB206D208AE334415F8014B03F8144C3D
:100D7000EEE7D31C0022DBB20092012103AA8DF81A
:100D80000D3006F052FF08B070BD00BF946E002019
:100D9000500200201FB50C4B1B78012B11D80B4BB8
:100DA0001B7873B11222E0238DF80E2000228DF8FB
:100DB0000C3000920323012103AA8DF80D3006F0B8
:100DC00034FF05B05DF804FB946E00205002002053
:100DD0001FB50C4B1B78012B11D80B4B1B7873B133
:100DE0001322E0238DF80E2000228DF80C300092A3
:100DF0000323012103AA8DF80D3006F016FF05B07C
:100E00005DF804FB946E00205002002070B5184C71
:100E1000247814F0FD0F8CB028D1164C24782CB314
:100E200000294FF0E00414BF1A2118218DF8084062
:100E30008DF80A101546D6B2E9B2C6F103040C4487
:100E4000891BC9B29942E4B206D20CAE344415F8FB
:100E5000011B04F8281CEEE700220333DBB20092EA
:100E6000012102AA8DF8093006F0DFFE0CB070BD3A
:100E7000946E00204F0200201FB50E4B1B7813F01C
:100E8000FD0214D10C4B1B788BB100294FF0E0030D
:100E900014BF1B2119218DF80C308DF80E1003237F
:100EA0000092012103AA8DF80D3006F0BEFE05B0B8
:100EB0005DF804FB946E00204F02002070B5164BC5
:100EC0001B78032BA4B000D023BB144B1B780BB3AF
:100ED000E0238DF80C3020238DF80E300D46CEB275
:100EE000ECB2C6F103032344A41BE4B29442DBB288
:100EF00006D224AE334415F8014B03F8844CEEE7D8
:100F0000D31C0022DBB20092012103AA8DF80D3020
:100F100006F08BFE24B070BD946E00204E020020BF
:100F20001FB50D4B1B78032B00D08BB90B4B1B78D7
:100F300073B12122E0238DF80E2000228DF80C30B1
:100F400000920323012103AA8DF80D3006F06DFEF7
:100F500005B05DF804FB00BF946E00204E02002037
:100F600070B5164B1B7813F0FB0FA0B024D1144BB7
:100F70001B780BB3E0238DF8083030238DF80A304E
:100F80000D46CEB2ECB2C6F103032344A41BE4B277
:100F90009442DBB206D220AE334415F8014B03F87D
:100FA000784CEEE7D31C0022DBB20092012102AAAA
:100FB0008DF8093006F039FE20B070BD946E002027
:100FC0005102002070B5164B1B7813F0FB0FC2B016
:100FD00024D1144B1B780BB3E0238DF80C30312354
:100FE0008DF80E300D46CEB2ECB2C6F103032344A9
:100FF000A41BE4B29442DBB206D242AE334415F8ED
:10100000014B03F8FC4CEEE7D31C0022DBB200924C
:10101000012103AA8DF80D3006F007FE42B070BD25
:10102000946E0020510200201FB50C4B1B7813F06A
:10103000FB0210D10A4B1B786BB1E02332218DF8F3
:101040000C308DF80E1003230092012103AA8DF8B5
:101050000D3006F0EAFD05B05DF804FB946E00204B
:101060005102002070B5164B1B78052BA4B000D0A0
:1010700023BB144B1B780BB3E0238DF80C304023BB
:101080008DF80E300D46CEB2ECB2C6F10303234408
:10109000A41BE4B29442DBB206D224AE334415F86A
:1010A000014B03F8844CEEE7D31C0022DBB2009224
:1010B000012103AA8DF80D3006F0B7FD24B070BDF4
:1010C000946E00204D0200201FB50D4B1B78052BA0
:1010D00000D08BB90B4B1B7873B14122E0238DF804
:1010E0000E2000228DF80C3000920323012103AA68
:1010F0008DF80D3006F099FD05B05DF804FB00BFDA
:10110000946E00204D02002070B5144B1B78632BA9
:10111000A4B021D1E0238DF80C3008238DF80E30D7
:101120000D46CEB2ECB2C6F103032344A41BE4B2D5
:101130009442DBB206D224AE334415F8014B03F8D7
:10114000844CEEE7D31C0022DBB20092012103AAFB
:101150008DF80D3006F069FD24B070BD946E00204E
:1011600070B5144B1B78602B8AB021D1E0238DF829
:10117000083009238DF80A300D46CEB2ECB2C6F124
:1011800003032344A41BE4B29442DBB206D20AAEAA
:10119000334415F8014B03F8204CEEE7D31C002232
:1011A000DBB20092012102AA8DF8093006F03DFD64
:1011B0000AB070BD946E002010B590F80231A4B052
:1011C000CBB1E0238DF80C30F1238DF80E300022E6
:1011D000D4B2D31C0C5DDBB201322CB10DF1900EF8
:1011E000734403F8844CF3E70121009103AA8DF8BE
:1011F0000D3006F01AFD24B010BD00005C2910B5BA
:101200000C4600F08C8015D8032940D009D801295C
:1012100023D0022940F094804F485049FFF7CCFF7B
:101220008AE0052958D043D35B2940F089804A4899
:101230004B4976E05F296CD006D85D296CD05E29D9
:101240007ED1454847496CE062295FD063295AD076
:10125000602975D14048444963E044493E48FFF75E
:10126000ABFF434801F057FD424804F0C0FD42483F
:1012700005F02AFE414804F086F9414803F06BF876
:10128000404802F09EFC404807F0B8F85CE03F4957
:101290003148FFF791FF364801F03DFD354804F035
:1012A000A6FD354805F010FE394805F071F9E4E770
:1012B00038492948FFF780FF2D4801F02CFD2D48C3
:1012C00004F095FD2C4805F0FFFD314805F060F96C
:1012D0002A4804F058F9D3E72F491F48FFF76CFF5D
:1012E000234801F018FD234804F081FD224805F051
:1012F000EBFD274805F04CF9204804F044F920485C
:1013000003F029F8BFE7144824490AE012482449A9
:1013100007E01148234904E00F48234901E00E4843
:101320002249FFF749FF124801F0F5FC114804F08B
:101330005EFD114805F0C8FD154805F029F999E74B
:1013400005481B49FFF738FF1A4B1B481C70BDE8C6
:10135000104000F0CBBE00BFA8540020D9D5000833
:1013600011D70008A5D600086ED60008E9D50008F8
:101370009C0A0020A078002018130020BC550020F3
:101380006432002054940020AC060020FCD50008F4
:10139000FC74002016D6000826D6000837D60008B0
:1013A00054D6000889D60008CAD60008ECD6000832
:1013B00034D70008946E0020EC0F002008B542B32B
:1013C000154B09781B788B4221D0052908D9A1F14A
:1013D0006203012B19D9A1F15B03052B19D814E085
:1013E000012901D10D4B0EE0022901D10C4B0AE07D
:1013F000032901D10B4B06E0042901D10A4B02E07D
:10140000052902D1094B1B781BB1FFF7F7FE00201D
:1014100008BD042008BD00BF946E002050020020CB
:101420004F0200204E020020510200204D020020F9
:1014300070B590F80231A4B01BB3E0238DF80C30E6
:10144000F2238DF80E300023DDB2DC1C4E5DE4B2D9
:1014500024AD0133254416B105F8846CF4E713126A
:1014600005F8843C24A9A31C013451FA84F4012119
:1014700004F8842CDBB2009103AA8DF80D3006F03D
:10148000D4FB24B070BD0000F0B5044685B0204602
:10149000012106F0A9FB0546002800F04B822046FA
:1014A000012106F0B8FB94F8002152B9E02803BFEF
:1014B0000123207084F8003184F8002184F8012190
:1014C000E5E7012A06D10223607084F8010184F85F
:1014D0000031DCE7551C94F80131A054EDB2AB4269
:1014E00084F80051D3D1A378182B00F0ED8021D8D7
:1014F000042B56D00ED8012B41D044D3022B46D01A
:10150000032B40F00D82023A2046E11CD2B2FFF7D5
:1015100055FF42E0102B00F0968004D8082B44D0F1
:101520000A2B7ED0FCE1112B00F0A780132B00F0DA
:10153000B980F5E1202B00F04E810ED81C2B00F075
:10154000268103D81A2B00F0DC80E9E11D2B00F086
:10155000F8801E2B00F02D81E2E1402B00F0BA81D3
:1015600006D8302B00F08681312B00F09D81D7E129
:10157000802B00F0C881902B00F0D681D0E120466E
:10158000FFF79AF9D0E12046FFF78CFACCE1023A56
:101590002046E11CD2B2FFF7A7FA014608B1204667
:1015A000C0E12046FFF75AF9BEE1974E3378632B2E
:1015B00007D1023A9548E11CD2B2FFF717F9054668
:1015C00000E002253378622B05D0A3F15E02012AE8
:1015D00001D95C2B08D194F801218D48033AE11C14
:1015E000D2B205F0ABFD054633785D2B08D194F8F7
:1015F00001218848033AE11CD2B205F0E5FD054619
:1016000033785B2B08D194F801218348033AE11C1D
:10161000D2B200F0E1FA0546002DC2D07F488049E1
:1016200089E0794B1B7853B9023A7E48E11CD2B26B
:1016300006F070FE0546002800F0768100E00525E2
:101640007648794977E0794B1B7893B16E4E3378C1
:10165000012B0ED8023A7648E11CD2B201F00AF909
:10166000054638B93378002B40F05E8120460121D1
:1016700044E0022569486F495DE06C4B1B786BB113
:10168000614E3378012B09D8023A6948E11CD2B285
:1016900001F016F905460028E4D000E002255F4875
:1016A000654948E0614B1B7853B1574E3378012BA5
:1016B00006D85F4801F02AF905460028D2D000E09C
:1016C000022556485D4936E05D4B1B78002B2FD034
:1016D0004D4E337813F0FD0F2AD15A4B1B783BB394
:1016E000023A5948E11CD2B206F038FB054600BB6D
:1016F0003378002B40F0188120460221FFF77EFD51
:1017000012E14F4B1B789BB13F4E337813F0FD0F26
:101710000ED14C4B1B78E11C023A23B1D2B24A489D
:1017200006F046FBE2E7D2B24848FEF7E7FDDDE708
:1017300002253A4846492AB2FFF77AFE2046294652
:10174000F0E03F4B1B78EBB1042D40F02981E178AC
:10175000012909D12C4B1B78022B14D13D4B1B784E
:10176000002B40F0E18009E069B9274B1B78022B80
:1017700009D1384B1B78002B00F0D680324806F098
:1017800091FBD1E00225254833492A46D4E72C4B6A
:101790001B7853B1023A2C48E11CD2B206F036FB5A
:1017A0000546002800F0C08000E002251B482B49B8
:1017B000C1E7234B1B7853B1023A2348E11CD2B254
:1017C00006F05AFB0546002800F0AE8000E0022536
:1017D00012482349AFE7234B1B78002B46D00A4E13
:1017E00033780BB1032B41D1023A1F48E11CD2B22E
:1017F00000F040FF0546D0BB3378002B40F09480CA
:10180000204603217AE700BF946E0020FCA300204D
:10181000D0A30020509400205D780020A854002020
:1018200045D70008AC06002067D70008500200200A
:10183000C02F00207AD7000899D70008B6D7000833
:101840004F0200204C020020986E002000A40020CF
:10185000D2D700085C780020ECD7000807D8000831
:1018600025D800084E0200205C8F002002254E483B
:101870004E4960E74E4B1B7893B14E4E337813F0D0
:10188000FB0F0DD1023A4C48E11CD2B203F050FDDF
:10189000054630B93378002B46D1204604212DE788
:1018A00002254148454946E7414B1B7873B1414EFB
:1018B000337813F0FB0F09D1023A3F48E11CD2B252
:1018C00003F036FD05460028E4D000E00225364846
:1018D0003B4930E73B4B1B788BB1364E33780BB12D
:1018E000052B0CD1023A3848E11CD2B205F070FD4C
:1018F000054628B93378BBB920460521FEE6022506
:101900002948324917E7032594F80131AB420BD936
:10191000615D04F58270013501F012FDEDB2F3E76F
:1019200020460121FEF7B0FF002384F8003184F83F
:101930000131ACE5264800F060FE4BF67F3398425B
:1019400004F5827784BF84F8005184F80151384649
:1019500001F0D6FC0546C8B12046032106F051F936
:10196000A842B8BF85B20026B3B2AB420ED2384609
:1019700001F00CFD04AA002302F8010D03210093DD
:101980002046012306F051F90136EDE720460321F8
:1019900006F02AF930B12046032106F03CF9F5E7BC
:1019A0000425F0E605B0F0BDA854002040D800089A
:1019B00051020020946E0020846F002064D800083B
:1019C00080D800084D0200200869002099D800083E
:1019D000EC0F0020F0B51E4690F80231A5B07BB3A5
:1019E000E0238DF80C30F3238DF80E300025EBB298
:1019F000EC1CCF5CE4B224AB0135234417B103F8EF
:101A0000847CF4E7111203F8841C24AB611C53FAA4
:101A100081F101F8842CA21C53FA82F2331202F8ED
:101A2000843C221DD3B2033424AA52FA84F4012147
:101A300004F8846C03AA00918DF80D3006F0F5F8D7
:101A400025B0F0BDF0B590F80241A5B0BDF9A86091
:101A5000002C3CD0E0248DF80C40F4248DF80E408E
:101A60000025EFB2EC1C11F807E0E4B224AF013519
:101A70002744BEF1000F02D007F884ECF1E7111201
:101A800007F8841C24AD611C55FA81F101F8842CFF
:101A9000A21C55FA82F2191202F8841CE21C55FAB3
:101AA00082F2012102F8843C231D55FA83F332129D
:101AB00003F8842CA31D053455FA84F4DBB204F832
:101AC000846C03AA00918DF80D3006F0AEF825B0B5
:101AD000F0BDF0B590F80241A5B0BDF9A870BDF910
:101AE000AC60002C4AD0E0248DF80C40F5248DF831
:101AF0000E4000255FFA85FEEC1C11F80EC0E4B222
:101B00000DF1900E0135A644BCF1000F02D00EF885
:101B100084CCEFE711120EF8841C24AD611C55FA39
:101B200081F101F8842CA21C55FA82F2191202F8F4
:101B3000841CE21C55FA82F2012102F8843C231D28
:101B400055FA83F33A1203F8842C631D55FA83F394
:101B5000321203F8847CA31D55FA83F303F8842C16
:101B600004F10803073455FA84F4DBB204F8846CFA
:101B700003AA00918DF80D3006F057F825B0F0BD9E
:101B800000220270427082707047000010B5044657
:101B90000F4805F06BFC0E4805F0E6FCB0B1637829
:101BA000012B10D10B4BA1780948312202FB0131E6
:101BB00005F00EFCA378013303F00303A370237830
:101BC00023B9637010BD00236370A37010BD00BF04
:101BD00008690020F6D80008012A09D10B78591E9F
:101BE0004B424B4103702BB143781BB9427001E06B
:101BF000042070470020704770B504460625002673
:101C000086F001062046314603F0F6FA20463146BA
:101C100003F002FB2046314603F00EFB204631461E
:101C200003F002FB2046314603F00EFB204631460E
:101C300003F012FB2046314603F016FB013D20461F
:101C4000FA2103F019FB15F0FF05D9D12046012137
:101C500003F0F2FA2046294603F0E6FA2046294628
:101C600003F0F2FA2046294603F0F6FA2046294608
:101C700003F0FAFA2046FA2103F0FEFA2046012189
:101C800003F0DAFA2046012103F0CEFA2046294675
:101C900003F0DAFA2046294603F0DEFA2046294608
:101CA00003F0E2FA2046FA2103F0E6FA2046012189
:101CB00003F0C2FA2046012103F0B6FA20460121C2
:101CC00003F0C2FA2046294603F0C6FA2046294608
:101CD00003F0CAFA2046FA2103F0CEFA2046012189
:101CE00003F0AAFA2046012103F09EFA20460121C2
:101CF00003F0AAFA2046012103F0AEFA2046294655
:101D000003F0B2FA2046FA2103F0B6FA2046012188
:101D100003F092FA2046012103F086FA20460121C1
:101D200003F092FA2046012103F096FA20460121A1
:101D300003F09AFA2046FA2103F09EFA2046012188
:101D400003F07AFA2046012103F06EFA20460121C1
:101D500003F07AFA2046012103F07EFA2046294654
:101D600003F082FA2046FA2103F086FA2046012188
:101D700003F062FA2046012103F056FA20460121C1
:101D800003F062FA2046294603F066FA2046294607
:101D900003F06AFA2046FA2103F06EFA2046012188
:101DA00003F04AFA2046012103F03EFA2046294674
:101DB00003F04AFA2046294603F04EFA2046294607
:101DC00003F052FA2046FA2103F056FA2046012188
:101DD00003F032FA2046294603F026FA2046294627
:101DE00003F032FA2046294603F036FA2046294607
:101DF00003F03AFA2046FA2103F03EFA204629463B
:101E000003F01AFA2046294603F00EFA2046294626
:101E100003F01AFA2046294603F01EFA2046294606
:101E2000BDE8704003F020BA2DE9F74F00250446C5
:101E30004FF4167100F8045B05F0D6F94FF4FA710F
:101E400004F1180005F0D0F94FF4167104F12C00DC
:101E500003F0EDFE04F1980B04F13C00294610223A
:101E600008F0EFFF04F14C09E56425656565A5659B
:101E7000A4F85C5025666566A4F86850E566256799
:101E8000A4F87450A567E567A4F88050C4F884509E
:101E9000C4F88850A4F88C50C4F89050C4F89450FA
:101EA00004F5927A5B46002223F8022B5345FAD1BF
:101EB00004F5BA785346002223F8022B4345FAD1A1
:101EC00004F5D8774346002223F8022BBB42FAD10F
:101ED00004F523763B46002223F8022BB342FAD1C5
:101EE00004F541723346002523F8025B9342AC4669
:101EF000F9D14FF48043A4F80633A4F80833A4F8CA
:101F00000A33A4F80C33A4F80E33A4F81033A4F861
:101F100012334FF40063A4F81433A4F816330123EA
:101F200084F81C33294684F80453C4F8185384F801
:101F30001D53A4F81E53A4F82053C4F8245384F866
:101F4000285358468C220193CDF800C008F079FF41
:101F500029465046502208F074FF294640463C224C
:101F600008F06FFF29463846DC2208F06AFF294650
:101F70003046782208F065FF29461022484608F0CE
:101F800060FF019BE3631B4B63642A23A4F85C306E
:101F9000194B63660C23A4F86830184B236706239B
:101FA000A4F87430164BE3675223A4F88030154B25
:101FB000C4F888302023DDF800C0A4F88C30124B20
:101FC00084F848C0C4F894302046C4F84090C4F85F
:101FD00060B0C4F86CA0C4F87880C4F88470C4F809
:101FE000906002F033FF2046FFF706FE204603B064
:101FF000BDE8F08F5C010020800100205E00002021
:1020000074010020760000201A0100202DE9F84319
:102010001E460378089D044688461746002B4AD082
:1020200090F82833002B46D1244B1A7832B990F817
:102030000413012251401A7003F0E6F808F1FF3151
:10204000042913D8DFE801F00306090C0F00B4F8E7
:102050000A830DE0B4F80C830AE0B4F80E8307E0BD
:10206000B4F8108304E0B4F8128301E0B4F80883F4
:102070004FF00009B1451ED037F81910B4F81633E7
:1020800011FB08F1C91301F30F01194489B2B1F52D
:10209000805F22BFB4F820330133A4F8203304F169
:1020A00018000DB92A4601E015F8092005F0F1F8ED
:1020B00009F10109DEE7BDE8F88300BF5C78002084
:1020C000183005F0A4B8000038B5054B1A788A42DC
:1020D0000D461C4601D003F09FF8257038BD00BFA7
:1020E000956E002080F81D137047000038B5164C1F
:1020F00021784B1E59425941054603F095F8217845
:102100008A1E51425141284603F096F82178A1F1E8
:10211000030EDEF1000141EB0E01284603F094F8B6
:102120002178A1F1040CDCF10001284641EB0C01FF
:1021300003F092F821784B1F594228465941BDE8D7
:10214000384003F091B800BF946E0020037810B5BA
:10215000044643B902F054FF012323702046BDE832
:102160001040FFF7C3BF10BDF0B5D0F818330278A8
:1021700001338DB00446C0F818337AB3D0F8242365
:102180004BF67F339A4216D9AB4B1A78511E04296D
:102190001D460DD8022A06D1A84B1B781BB1A848B2
:1021A000002105F07FFE002320462B70FFF79EFFE5
:1021B0000023C4F82433D4F8182345F6BF539A42B9
:1021C0001BD994F81C13002381F00101C4F81833C3
:1021D00084F81C13204603F00FF80EE099498B4257
:1021E00040F2988190F81C13C0F8182381F0010187
:1021F00080F81C1303F000F88CE1204602F0F0FF99
:1022000084F8280304F1180005F023F820B98B4B5B
:102210001A78002A40F07781261D304605F019F81B
:10222000012840F27781002502AB5A190AA93046ED
:1022300005F056F804AB03EB450104F12C0003F064
:1022400069FD94F81D335BB1BDF828301BB140F631
:10225000FF72934204D1B4F81E330133A4F81E3345
:10226000B4F81423BDF828309B1AB4F8062303AF42
:1022700013FB02F3DB1303F30F0327F815300DB93B
:102280000125D1E794F82833002B40F043813846EC
:1022900008A9022208F090F80AAA022304F13C00DF
:1022A00008A908F011FC0A9A0B9B1344BDF80C20F6
:1022B000022593FBF5F31B1403F30F039BB2D21A11
:1022C000ADF81420BDF80E20D31AADF816305A4BD5
:1022D0001E78002E5ED15C4B1B7863B104F1680060
:1022E00005A907AA2B4608F093FA584807A904AA9B
:1022F0002B4604F041FD564B1B7863B104F174008A
:1023000005A907AA022308F083FA524807A904AADC
:10231000022302F073FC504B1B789BB104F1800048
:1023200005A906AA022308F073FA04F18C0006A995
:1023300007AA022308F06CFA484807A904AA022356
:1023400001F010FF464B474E1A781D461AB93378F4
:10235000002B00F0DF80022304F15C00394607AA5D
:1023600008F056FA33782BB13F4807A904AA022394
:1023700003F00EFC2B78002B00F0CC803B4B1B783D
:102380001BB13B4807A9022238E03A4807A904AA32
:1023900002233AE0012E12D12B4B1B78002B00F0C8
:1023A000B98004F1680005A907AA2B4608F030FAA5
:1023B000264807A904AA2B4604F0DEFCAAE0022E58
:1023C00026D1274B1B78002B00F0A480334604F164
:1023D0005C00394607AA08F01BFA244B1B7883B12E
:1023E000164B1B783BB10096234807A904AA02AB01
:1023F00004F01AFD8EE01E4807A9324600F032FEB6
:1024000088E01C4807A904AA334604F063F881E079
:10241000032E33D1134B1B78002B7BD004F15C00CF
:1024200005A907AA2B4608F0F3F90F4807A904AA43
:102430002B4603F0ADFB6DE0946E00205C7800202D
:10244000986E00207FA9030050020020FC74002039
:1024500051020020643200204D02002054940020DC
:102460004F0200204E020020BC5500204C020020EC
:102470009C0A0020A078002018130020042E11D1FF
:10248000254B1B78002B45D004F1740005A907AA41
:102490002B4608F0BDF9214807A904AA2B4602F0F3
:1024A000ADFB37E0052E17D11D4B1B7893B304F11C
:1024B000800005A906AA2B4608F0AAF904F18C00B1
:1024C00006A907AA2B4608F0A3F9164807A904AAEB
:1024D0002B4601F047FE1DE0632E0CD104F168008D
:1024E000394607AA2B4608F093F90F4807A92A4650
:1024F00002F07EFC0EE0602E0CD10C4804A90222F2
:1025000005F042F806E0187094F80413204602F033
:102510007BFE81E60DB0F0BD510200206432002048
:102520004D0200205494002060780020FC680020B8
:10253000F0B580F80433BDF934C09DF818309DF82B
:1025400014E09DF81C709DF820609DF824509DF8C3
:102550002840DB010CF5006CA0F80833A0F814C388
:102560009DF82C30BDF930C04FEACE1EFF01F601B8
:10257000ED01E401DB010CF5006CA0F806E3A0F826
:102580000A73A0F80C63A0F80E53A0F81043A0F84B
:102590001233A0F816C319B1CEF1000EA0F806E36D
:1025A00072B17F4276426D4264425B42A0F80A7388
:1025B000A0F80C63A0F80E53A0F81043A0F8123353
:1025C000F0BDB0F81E33003318BF01230B70B0F814
:1025D0002033003318BF012313700023A0F81E33EB
:1025E000A0F820337047183004F0A0BE043004F087
:1025F0009DBE0023C0F824337047D0F824037047F1
:1026000090F828037047000038B54FF47A6104460B
:1026100004F11C0500F040FE0C2204F11000002122
:1026200008F00FFC04F13C022B46002123F8021BAA
:102630009342FAD104F2EC42002103F8011B9342C9
:10264000FAD1F023A4F8F034A4F8EC14A4F8EE14B2
:1026500084F8F2142846202208F0F3FB05232374A3
:1026600009236382024B6361A561204638BD00BF28
:10267000D4010020792A70B506460C460ED100F030
:102680001DFE77280CD904F1780514F8011F304697
:1026900000F056FEAC42F8D1002070BD042070BDA1
:1026A000052070BD70B500238EB001F0C005802DEF
:1026B00090F8F24402AA0ED0C02D05D095B94FF67D
:1026C00089564FF6C46511E0002C40F2657418BFBE
:1026D0004FF46D740EE0002C40F2772418BF4FF4D5
:1026E0009E7407E04FF69B064FF64C45002C14BF36
:1026F0002C46344622F8134001338900042BC9B21A
:10270000D3D11146103004AA07F086FE00230093AF
:102710000348032104AA1423FFF778FC0EB070BD10
:10272000EC0F002038B5044600F0EAFDB4F8EC34B4
:1027300008B903B938BD2BBB244A12787AB9B4F86A
:10274000F0149AB28A421AD2B4F8EC24501C2244F3
:10275000A4F8EC04772082F83C000133F1E77825F7
:10276000204600F013FEB4F8EC34013D5A1C23441B
:1027700015F0FF05A4F8EC2483F83C00F0D1002309
:10278000A4F8EE34B4F8EC34FBB11148FFF798FC30
:102790000546142D18D9B4F8EE345A1C2344A4F875
:1027A000EE2493F83C102046FFF77CFFB4F8EE24AB
:1027B000B4F8EC34143D9A42ADB2EAD30023A4F845
:1027C000EE34A4F8EC3438BD38BD38BD5C78002058
:1027D000EC0F002001EB4101890001F5167189B26F
:1027E000B1F5966F8ABF4FF49663A0F8F014A0F885
:1027F000F034704708B500F061FD7823B0FBF3F0CA
:10280000C0B208BD80F8F2147047000038B54FF42C
:10281000FA61044604F11C0500F03EFD0C2204F1AF
:102820001000002108F00DFB04F144022B460021AA
:1028300023F8021B9342FAD104F52772002103F812
:10284000011B9342FAD13C23A4F8A032A4F89C12B5
:10285000A4F89E122846282208F0F3FA05232374D0
:1028600003236382024B6361A561204638BD00BF2C
:102870002E020020292A70B506460C461AD100F017
:102880001DFD2928024606D80B480C4912B2FEF756
:10289000CFFD052070BD3046002100F051FD651EC2
:1028A000283415F8011F304600F04AFDA542F8D142
:1028B000002070BD042070BDA8540020E2DE000896
:1028C0000C2A70B506460C461AD100F0F7FC0C280D
:1028D000024606D80B480C4912B2FEF7A9FD0520A6
:1028E00070BD3046012100F02BFD651E0B3415F83C
:1028F000011F304600F024FDA542F8D1002070BD34
:10290000042070BDA854002002DF000810B5044662
:1029100000F0D4FC024628B905480649FEF788FDB8
:10292000052010BD2046022100F00AFD002010BD48
:10293000A854002020DF00082DE9F043002097B0C4
:1029400001AC00230355135401305328F8D11C4621
:102950001D4611F805E018462E01234600270124E4
:10296000BC401EEA040F14BF0124002404EB000C39
:1029700018442044C0070CF0010C0ED506F00700E7
:10298000DFF8748118F8009016A800EBD60010F854
:10299000548C49EA080800F8548CBCF1000F10D0A0
:1029A000701C0DF1580C0CEBD00CDFF84C8100F0D2
:1029B000070018F800801CF8540C48EA00000CF8D6
:1029C000540C0137082F06F10206184601D02346A1
:1029D000C5E701352A2DBCD10021454C04EB41034C
:1029E00007332646B1F5257F74D216A800EBD10037
:1029F00010F8540C07060AD513F8067C13F807ECF8
:102A00000125BD4012F80E703D4302F80E504506F8
:102A10000AD513F8047C13F805EC0125BD4012F823
:102A20000E703D4302F80E5087060AD513F8027C5B
:102A300013F803EC0125BD4012F80E703D4302F877
:102A40000E50C50609D51F7813F801EC0125BD40CD
:102A500012F80E703D4302F80E500D1DB5F5257F9E
:102A600003F1080334D2030709D514F8157006EBF7
:102A7000450501236D78AB40D55D2B43D355470702
:102A80000AD54B1D14F8137006EB43035D78012340
:102A9000AB40D55D2B43D35585070AD58B1D14F864
:102AA000137006EB43035D780123AB40D55D2B43E8
:102AB000D355C3070AD5CB1D06EB430614F81340C4
:102AC000707801238340105D03431355083184E778
:102AD000294687E7013A00230649585C12F8011F8E
:102AE00001334140532B1170F6D117B0BDE8F0838C
:102AF000BAD9000851DF00083DDF000830B50023D7
:102B00009BB00C46012202EA0401914202A90CBFCB
:102B10004FF6B74540F2493521F8135001335200C2
:102B2000082BD2B2EFD106AA103007F075FC0023B3
:102B300000930448012106AA2823FFF767FA1BB077
:102B400030BD00BFEC0F002070B5A2B0044600F00D
:102B5000D7FB20B9B4F89C32002B00F09A802046B5
:102B600000F00FFCB4F89C5200283BD1002D6FD12F
:102B7000494B1B787BB9B4F8A0129AB28A4264D24E
:102B8000B4F89C22501C2244A4F89C02AA2082F88B
:102B900044000133F1E7204600F0F8FB204600F046
:102BA000F5FB01A948550135292DF7D10DF1320268
:102BB0002046FFF7C1FEEA238DF83030B4F89C229E
:102BC000A6238DF8313000230CA8D118185C14FA14
:102BD00081F10133552B81F84400F5D15532A4F829
:102BE0009C2232E0012814D195BB204600F0CEFB98
:102BF0000C25B4F89C62731CA4F89C32204600F0AB
:102C0000C5FB2644013D15F0FF0586F84400F0D1D0
:102C10001BE002281CD1DDB9204600F0B7FBB4F858
:102C20009C3203F1120189B200221C4D9818555DA7
:102C300014FA80F00132062A80F84450F5D10633A8
:102C40009BB28B42F0D1A4F89C320023A4F89E32B0
:102C5000B4F89C32EBB11248FFF732FA0546282D42
:102C600017D9B4F89E325A1C2344A4F89E2293F834
:102C700044102046FFF742FFB4F89E22B4F89C327D
:102C8000283D9A42ADB2EAD30023A4F89E32A4F8BC
:102C90009C3222B070BD00BF5C78002045DF000888
:102CA000EC0F002001EB4101490001F5967189B25A
:102CB000B1F5167F8ABF4FF41673A0F8A012A0F8E2
:102CC000A032704708B500F0F9FA0D23B0FBF3F01D
:102CD000C0B208BD10B5034600F11402002143F84C
:102CE000041B9342FAD100F23C54002223F8022B39
:102CF000A342FAD142F20F73A0F83C25A0F83E257A
:102D0000A0F84035C0F84425A0F84825A0F84A2589
:102D100080F84C2510BD0023A0F83E35A0F83C35C6
:102D2000C0F84435A0F84A35A0F8483542F20F7390
:102D3000A0F84035704700002DE9F043BDF81C6055
:102D4000BDF920C0BDF924E006EB4202B51C741C9D
:102D50000232ADB2A4B292B2AE1E9542B6B252D019
:102D600000EB4107CEF10008BF8ACCEB07073FB26A
:102D700047454FEAE609DFF8948006F007060BDACC
:102D800018F8067013F8096026EA070603F80960C8
:102D900004F00707E61021E0002F0BDA18F80670A0
:102DA00013F8096026EA070603F8096004F007072C
:102DB000E6100DE0774518F8066013F8097046EA4A
:102DC000070603F8096004F007074FEAE40605DA8E
:102DD00018F807809F5D27EA080705E013F80690BA
:102DE00018F8077049EA07079F554F1DBEB2B6F5A0
:102DF000257F24BFA1F28F26B6B202350234ADB2D0
:102E0000A4B23146A8E7BDE8F08300BFE6DF0008C2
:102E10002DE9F04FB0F83C2550F8223000294FEA58
:102E20004303B8BF43F0010340F82230B0F83E3509
:102E300000EB43030446998250F82230834823F084
:102E40007F4391B0584001F0DFF9022800F2A480DE
:102E5000B4F83E7507F2212189B2B1F5257F28BF6C
:102E6000A7F173004FF0000E2CBF80B208464FF45C
:102E70007A554CF28013764604EB4002DFF8E0C14D
:102E8000B2F914201EF90CC01BB293422DB2B8BF88
:102E900013469542A8BF1546BCF1010F9BB2ADB2D7
:102EA0000AD0BCF1030F05D0BCF1FF3F06D002EB06
:102EB000420203E002EB4202B61A00E01644421D51
:102EC00092B2B2F5257F28BFA0F28F200EF1010E3D
:102ED00028BF82B2BEF1180F01D01046CCE7D4F85B
:102EE0004425964258DD1BB203FA85F56D101FFA92
:102EF00085F85B1B44F631456B43B1F5257FC3F381
:102F0000CF3528BFA7F173014FF004030DF11C0A60
:102F10000FFA88F92FB2009328BF89B25346CDF833
:102F200004900297204618224FF0000BFFF704FF91
:102F30005B46474A47491BF802001AF80B200593E5
:102F400002401BF80100504001F058F9059B0BF1BD
:102F5000010B1844BBF1070FC3B2EAD1032B1BD8F6
:102F60004A463B463C483D49FEF734FDB4F83E3501
:102F7000C4F8446503F20D1292B2B2F5257F24BF66
:102F80006FF4C3729B18A4F84885A4F84A5534BF5F
:102F9000A4F84025A4F84035B4F83E25B4F84035EF
:102FA00093423CD1991D89B2B1F5257F28BFA3F288
:102FB0008E214FF008030093B4F948350193B4F91A
:102FC0004A35029328BF89B2842207AB2046FFF717
:102FD000B3FE06A8FDF74BFA0DF11A020DF11B0323
:102FE00006A80DF11D01FDF76FFA9DF81A2094F85F
:102FF0004C359A420CD19DF81B30032B08D1C323CA
:103000008DF81C301448002107AA2223FDF7FEFE8C
:1030100042F20F73A4F840350023C4F84435B4F8E5
:103020003E3501339BB2B3F5257F28BF0023A4F8BA
:103030003E35B4F83C3501339BB2042B88BF0023E6
:10304000A4F83C3511B0BDE8F08F00BF6E287600C3
:10305000ACDF0008B3DF0008A8540020BADF000886
:10306000EEDF000870B506460C4601EB4205AC42A7
:1030700005D0304634F9021BFFF7CAFEF7E770BDF2
:1030800080F84C15704700000148FDF70FBE00BFE7
:10309000A854002010B53048304CFEF7F5F9304800
:1030A000FFF762F82F4B1B782BB12378012B02D14D
:1030B0002D48FFF749FD2D4B1B7863B12378022B78
:1030C00009D12B4B1B781BB12A4805F057F802E0B9
:1030D0002948FDF759F9294B1B782BB12378032B8D
:1030E00002D12748FFF71EFB264B1B782BB1237814
:1030F000042B02D1244802F075F9244B1B782BB124
:103100002378052B02D1224804F0B0F92378632BF1
:1031100002D12048FDF730FA2378622B05D0A3F1C5
:103120005E02012A01D95C2B02D11B4803F0DEFFAD
:1031300023785D2B02D1194804F01EF823785B2B0D
:1031400002D11748FEF722FD237823B91548BDE8C0
:10315000104005F093B810BDA8540020946E0020D4
:10316000EC0F002050020020C02F00204F02002052
:103170004C020020986E002000A400204E02002087
:103180005C8F002051020020846F00204D0200203F
:1031900008690020FCA30020D0A300205094002048
:1031A0005D780020AC06002008B5FFF76DFFFFF743
:1031B00071FFFCE708B5224803F0A8F92148FFF7A2
:1031C00025FB2148FFF786FD204803F021FE20481B
:1031D00004F046FD1F4802F0C2FD1F48FDF75AF8F3
:1031E0001E4802F075F91E48FFF70EFA1D4801F05F
:1031F0004DF81D4802F050F81C4800F09BFC1C489C
:1032000004F09AF81B4801F055FD1B48FDF7B0F992
:103210001A4803F063FE1A4803F0AAFF1948FEF7A4
:10322000AFFC194804F0A8F9184805F017F8184839
:10323000FDF7FCFA1748BDE80840FEF7F5BD00BFF2
:10324000FC740020C02F00209C0A002018130020CE
:10325000986E0020A078002000A40020BC5500201B
:103260005C8F002064320020846F00205494002082
:103270000869002060780020FCA30020D0A3002073
:10328000509400205D780020FC680020AC060020EF
:10329000A8540020EC0F002010B500230381044641
:1032A000438101800373084607F028FD60602046D3
:1032B00010BD002303814381037370474289038952
:1032C00092B29BB29A42028803D1037B93B9104613
:1032D00012E04189038989B29BB2994239BF0389BF
:1032E0004089438900893ABF12FA80F0C01A181A3F
:1032F00080B201E000207047824238BF0020704752
:103300004289038992B29BB29A4205D1027B02F0B4
:10331000FF039AB1008870474289038992B29BB239
:103320009A4223BF428903890088038935BF4089B7
:1033300010FA83F0181A801A80B270471846704746
:10334000037B10B503F0FF02BBB9038944689BB24D
:10335000E1540389018801339BB2038103899BB245
:10336000994298BF02810289438992B29BB29A42E4
:103370004FF0010303D1037301E0002010BD184694
:1033800010BD438942689BB2D05C704710B542893A
:10339000416892B20346885C1C88002119735A89DF
:1033A000013292B25A815A8992B29442C0B298BF05
:1033B000598110BD034610B503F8041B00F1180233
:1033C000002143F8041B9342FAD11A4600F5E46445
:1033D000002322F8023BA242FAD142F20F72A0F877
:1033E0002037A0F82237A0F82437A0F82637A0F815
:1033F0002827A0F82A37C0F82C37A0F83037A0F8D3
:103400003237A0F83437A0F83637A0F83837A0F8AC
:103410003A37A0F83C37A0F83E3780F8403780F8BC
:10342000413780F8423780F84337A0F8443780F8B6
:10343000463780F8473780F8483700F6526200F286
:103440004A73002123F8021B9342FAD110BD0023D6
:10345000A0F82237A0F82A37A0F82037C0F82C3778
:1034600080F8413770470023A0F82437A0F82237AE
:10347000A0F82A37A0F82037C0F82C3780F8413759
:1034800080F8423780F84637A0F8263742F20F73AB
:10349000A0F82837704700002DE9F047BDF820500C
:1034A000BDF924E0BDF9287005EB4202AE1C6C1C8E
:1034B0000232B6B2A4B292B2A6F1020C96421FFA40
:1034C0008CFC4ED001F10C05C7F1000830F8155006
:1034D000CEEB05052DB245454FEAEC09DFF88880B3
:1034E0000CF0070C0BDA18F80CC013F8095025EA99
:1034F0000C0503F8095004F0070CE51022E0002D3C
:103500000BDA18F80CC013F8095025EA0C0503F87B
:10351000095004F0070CE5100DE013F809A0BD42B6
:1035200018F80C504AEA050503F8095004F0070C96
:103530004FEAE40506DA18F80C8013F805C02CEA07
:10354000080C05E013F8059018F80CC049EA0C0CBB
:1035500005310236023403F805C089B2B6B2A4B20E
:10356000AAE7BDE8F08700BFB7E10008B0F8203750
:103570002DE9F04F00EB830304465B68814823F09C
:103580007F4389B058400F4600F03EFE0228A0F16C
:103590000300C0B28CBF4FF000084FF001081228A2
:1035A00040F2EC80B4F82237A3F1730189B20533FD
:1035B0004FF000091FFA83FE8C464CF280154FF441
:1035C0007A524E460CF10C032DB234F9133012B27C
:1035D0009D42B8BF1D469A42A8BF1A46ADB292B2EC
:1035E000B8F1000F01D0684800E0684819F8000001
:1035F00040B2012808D0032804D0013006D003EBE4
:10360000430303E003EB4303F61A00E01E440CF10E
:10361000050C1FFA8CFCF44509F10109D2D1D4F84C
:103620002C379E4240F3AA802DB205FA82F35B103C
:10363000ED1A44F631425543C5F3CF3504220193C8
:103640000DF118091FFA83FA2BB20092029320465B
:1036500018224B46FFF720FFDFF83CB1B8F1000F0E
:1036600040D04FF0000843461BF8080019F8082026
:1036700047490593024018F80100504000F0BEFD94
:10368000059B08F101081844B8F1070FC3B2EBD14C
:10369000032B73D88FB1A4F83E57A4F83C57A4F875
:1036A0003A57A4F83857A4F836A7A4F834A7A4F8D2
:1036B00032A7A4F830A700230BE094F8403704EBBE
:1036C00043020133DBB2032BA2F83857A2F830A72C
:1036D00002D884F8403701E084F84077C4F82C67BA
:1036E00040233DE043461BF8080019F8082029490B
:1036F0000593024018F80100504000F07FFD059B43
:1037000008F101081844B8F1070FC3B2EBD1032B3D
:1037100034D88FB1A4F83E57A4F83C57A4F83A57D0
:10372000A4F83857A4F836A7A4F834A7A4F832A709
:10373000A4F830A700230BE094F8403704EB4302D1
:103740000133DBB2032BA2F83857A2F830A702D816
:1037500084F8403701E084F84077C4F82C672023D0
:1037600084F84137B4F82237A4F82437A3F5C3729C
:1037700003F20D13A4F82627A4F8283709B0BDE8F2
:10378000F08F00BF6E287600BFE100089FE10008BF
:1037900014E000080DE0000806E0000880F8431778
:1037A0007047A0F8441770470A46B0F8261701F191
:1037B0003C0301F5167130B59BB2044688B2002176
:1037C0005D1C04EB4303B3F84A371944ABB28342A0
:1037D000F6D14FF40773B1FBF3F1C1F3072382F87D
:1037E000223082F82310217802482423BDE830409B
:1037F000FDF70CBBA8540020B0F82A37F0B5013310
:103800009BB20446A0F82A37B0F8440798428FB01C
:1038100000F27981B4F82237B4F828079842C0F052
:103820007281B3F5617F80F06E8104EB4300002963
:10383000A0F84A270183B4F8200704EB800042680F
:103840004FEA4202B8BF42F00102426094F84627B4
:1038500032B9A3F5C8735A2B10D8204601210BE0CA
:10386000B4F82427511E89B28B4207D3013292B299
:10387000934203D820460021FFF778FEB4F82237A0
:10388000B4F82817994240F03081B4F93237B4F9CE
:103890003077B4F938671F44B4F934371F44B4F9AA
:1038A00036371F44B4F93A371E44B4F93C371E4446
:1038B000B4F93E370EAD1E4494F8413705F8243D67
:1038C000A1F28E21082347F38F0746F38F0600935A
:1038D00001972B460296204689B28422FFF7DCFD31
:1038E00094F84137402B40F0A48004A8FCF7BFFDBA
:1038F0000DF112020DF1130304A80DF11501FCF7EF
:10390000E3FD9DF8122094F843379A4240F0ED8091
:1039100000239DF8142084F8423784F847379DF837
:1039200013301A438DF814200A2B69D8DFE803F00E
:1039300042395B686868061D1D681D00237875485C
:1039400075490097002B18BF0222B4F9243701965D
:1039500008BF0122FEF7BDF820462946FFF724FFE5
:10396000022384F84637002318E094F84637022BE8
:1039700040F0BB802378674868490097002B18BF48
:103980000222B4F92437019608BF0122FEF7A1F8FC
:1039900020462946FFF708FF9DF8133084F8483782
:1039A000A3E023780097002B0196B4F924375948F7
:1039B0005B490BE094F84637012B10D1237855482A
:1039C00058490097002BB4F92437019614BF0222FE
:1039D0000122FEF77EF820462946FFF7E5FE012387
:1039E00084F8463781E094F84637012B7DD123785F
:1039F0000097002B0196B4F9243746484A4907E05E
:103A00002378444849490097002BB4F9243701969C
:103A100014BF02220122FEF75CF820462946FFF778
:103A2000C3FE002384F8463742F20F73A4F8283708
:103A30005BE0202B1AD1237836483D490097002BB4
:103A400018BF0222B4F92437019608BF0122FEF7FD
:103A500040F820462946FFF7A7FE012384F84637A1
:103A6000002384F8423784F847373EE094F846371D
:103A700093B194F842370133DBB20C2B84F8423710
:103A80000AD924482178FDF7F7F9002384F846374E
:103A900042F20F73A4F8283794F84637012B17D158
:103AA00094F847371B482178042B8DBF202301331E
:103AB000DBB28DF8143087BF002384F8473784F8D1
:103AC00047378DF814302A462223FDF79FF90CE082
:103AD000022B0AD194F848373BB143F0400320460B
:103AE00029468DF81430FFF75FFEB4F82237013312
:103AF000A4F82237B4F8203701339BB2042B88BFD7
:103B00000023A4F8203794F84607003018BF01209E
:103B10000FB0F0BDA85400201BE0000852E00008E0
:103B20008AE00008C2E00008FDE0000839E1000872
:103B300069E100080346002210B503F8022B00F1EA
:103B40001602002123F8021B9342FAD100F61674E4
:103B5000002223F8022BA342FAD142F20F73A0F8FD
:103B60001A3FA0F81C3FA0F81E3FA0F8203FA0F885
:103B7000223FA0F8162FA0F8182FC0F8242FA0F885
:103B8000282F80F82A2F00F62C7300F64C710022A3
:103B900023F8022B8B42FAD1A0F84C2F00F66E715D
:103BA00000F64E72002322F8023B8A42FAD16322C9
:103BB000A0F86E3F80F8702FC0F8743FA0F8783FEF
:103BC00010BD6322002380F8702F42F20F72037041
:103BD000A0F8183FA0F8163FC0F8243FA0F81A2F0D
:103BE000A0F81C2FA0F81E2FA0F8202FA0F8222F3D
:103BF000A0F84C3FA0F86E3FA0F8283F80F82A3F7D
:103C0000C0F8743FA0F8783F70470000F7B505464C
:103C10004CF280144FF47A504FF0000C8646264642
:103C20001FFA8CF3934229D205EB4103B3F91670C6
:103C3000002F0CDD36B2BE420FFA8EFEB8BF3E46F4
:103C40007745A8BF7746B6B21FFA87FE09E000B2F3
:103C5000B84224B2A8BF3846A742B8BF274680B2B0
:103C6000BCB201F10A07BBB2B3F5F06F24BFA1F2F9
:103C700076739BB20CF1010C1946D1E70FFA8EF264
:103C800023B202FA86F203FA80F352105B10D118C5
:103C90004910541AA4B200918EB221B201911D486C
:103CA0001D49FDF716FF95F8703F632B05F62A7145
:103CB00005F64A7009D10B4623F8026F83425C84F3
:103CC000FAD1002385F8703F0BE005EB4302013386
:103CD000DBB20F2BA2F82C6FA2F84E4F85F8703F85
:103CE000EFD80023A5F84C3FA5F86E3F1A4631F8EF
:103CF000024F23444C8C814222449BB292B2F6D1B3
:103D000043F30B1342F30B12A5F84C3FA5F86E2FAB
:103D100003B0F0BDA8540020E4E100082DE9F04F05
:103D2000BDF82440BDF92890BDF92C8004F1020EA5
:103D300001341FFA8EFEA4B24FF0000C1FFA8CF66D
:103D4000AEF102059642ADB24ED200EB4106EF1045
:103D5000B6F816A0C9EB0A0AC8F100060FFA8AFAEB
:103D6000B24505F0070B214E06DADD5D16F80BA013
:103D700025EA0A05DD551BE0BAF1000F06DADD5D24
:103D800016F80BA025EA0A05DD5508E0C24516F82D
:103D90000B5013F807A04AEA0505DD5508DAE510CF
:103DA00004F00707F75D5E5D26EA07065E5508E04A
:103DB000E71004F0070513F807A0755D4AEA05054A
:103DC000DD5501F10A05ADB2B5F5F06F24BFA1F2E2
:103DD0007675ADB20EF1020E02340CF1010C1FFA31
:103DE0008EFEA4B22946A9E7BDE8F08F52E2000892
:103DF000B0F8163F00EB43032DE9F047044658881E
:103E0000C0F3090080F4A67086B080F0010000F0D5
:103E1000FBF9022800F2A780B4F8185F05F22677B4
:103E2000BFB2B7F5F06F28BFA5F15A014FF0000EF1
:103E30002CBF89B2394676464FF47A504CF2801343
:103E400004EB4102DFF830C1B2F916201EF90CC0B4
:103E50001BB2934200B2B8BF13469042A8BF1046AF
:103E6000BCF1010F9BB280B20AD0BCF1030F05D0A8
:103E7000BCF1FF3F06D002EB420203E002EB42023C
:103E8000B61A00E0164401F10A0292B2B2F5F06FE0
:103E900028BFA1F276710EF1010E28BF8AB2BEF1E1
:103EA0000A0F01D01146CBE7D4F8242F96425ADDF1
:103EB00094F8702F632A0CD11BB203FA80F04010E3
:103EC0001B1A44F63E125343DB13A4F84C0FA4F81C
:103ED0006E3FB7F5F06F28BFA5F15A07B4F94C3F14
:103EE000019328BFBFB20025B4F96E3F02930DF1D4
:103EF00014094B460095204639460A22FFF70EFF6B
:103F00002378AB420CBF4FF0010A4FF0030AA846DA
:103F1000174B184AE85C19F805300340A85C584074
:103F200000F06CF901354044032D5FFA80F8EFD1C1
:103F3000D04518D80623A4F8283FB4F8183FA4F8B1
:103F40001E3F03F21B7292B2B2F5F06F28BF653BC1
:103F5000C4F8246FA4F81A7F34BFA4F81C2FA4F867
:103F60001C3F012000E0002006B0BDE8F08700BF44
:103F7000E1E100084FE20008D7E1000810B504466F
:103F8000FFF736FFA0B194F82A3F8BB9C4F8743F0D
:103F9000A4F8783F1B480121FEF796F81948012143
:103FA000FEF7A0F8632384F8703F052384F82A3FC6
:103FB00094F82A3F13B1013B84F82A3F94F82A3F32
:103FC000012B1ED1B4F81E3F03F27F7292B2B2F5FC
:103FD000F06F28BF03F1FF32A4F8202F5A1C92B2D1
:103FE000B2F5F06F24BFA3F27F73A4F8223F4FF025
:103FF000010323704FF0000338BFA4F8222F84F888
:104000002A3F10BDEC0F002010B50446B0F8780F21
:1040100060B1D4F8743FB3FBF0F3C3F3072081F829
:10402000310081F832300648332201E00448312261
:10403000FDF718F80023C4F8743FA4F8783F10BDCA
:10404000A854002030B5B0F8201FB0F8222FB0F8E7
:10405000183F914293B0044607D28B4208D3934253
:1040600006D82046FFF7C4FE02E08B42F7D3F8E7FC
:10407000B4F8182FB4F81C3F9A4269D1B4F8283F1D
:10408000062B16D1B4F81E3F03F27F7292B2B2F53E
:10409000F06F28BF03F1FF32A4F8202F5A1C92B210
:1040A000B2F5F06F2ABFA3F27F73A4F8222FA4F811
:1040B000223F2046B4F81A1FC022FFF7A7FDB4F92B
:1040C0006E1FB4F91E2FB4F94C3F009121482249CC
:1040D000FDF7B8FC08230093B4F94C3F0193B4F901
:1040E0006E3F0293B4F81A1F2046C02205ABFFF7BB
:1040F00015FEB4F8285F013DADB2A4F8285FDDB924
:1041000014481649FDF758F815482946FDF7DCFF15
:1041100013482946FDF7E6FF0E48FCF7D5FF42F2AB
:104120000F73A4F81C3F6323257084F8703F84F854
:104130002A5FC4F8245F0BE06B1F5D425D4120469F
:1041400005A98DF81450FFF75FFF0023C4F8243F42
:1041500013B030BDA854002005E200082DE200088D
:10416000EC0F00202DE9F04104460E4617461D468F
:104170004FF00008A8453ED037F81830D4F8742F17
:1041800036F818001344C4F8743FB4F8162FB4F886
:10419000783F04EB42020133A4F8783F538801B220
:1041A0005B009BB20029B8BF43F001035380B4F811
:1041B000183F04EB4303D8822378012B204602D119
:1041C000FFF740FF01E0FFF7D9FEB4F8183F0133D5
:1041D0009BB2B3F5F06F28BF0023A4F8183FB4F8E2
:1041E000163F01339BB2092B88BF0023A4F8163F6A
:1041F00008F10108BEE7BDE8F0810000014B185C42
:10420000704700BF5AE20008094AC0F30721C3B251
:10421000515CD35C0B44C0F30741000E515C105C51
:1042200051FA83F350FA83F0C0B282B002B0704703
:104230005AE2000882B0144ACDE90001C3B2C0F3CB
:104240000721D35C515C0B44C0F30741000E515C65
:10425000105C51FA83F39DF8041050FA83F3505C1C
:104260009DF8051050FA83F3505C9DF8061050FA43
:1042700083F3505C9DF8071050FA83F3505C50FABA
:1042800083F0C0B202B070475AE200080346002231
:1042900010B503F8042B00F11802002143F8041BA9
:1042A0009342FAD100F507511831002223F8022B6E
:1042B0008B42FAD142F2D81342F2DC11C25242F2DE
:1042C000DA13C25242F20F73435242F2DE114352EA
:1042D00042F2E011435242F2E211435242F2E4113F
:1042E000435242F2E611435242F2E811435242F283
:1042F000EC13C25042F2F013C25242F2F213C25413
:1043000000F5075300F5085234331432002123F826
:10431000021B9342FAD142F2142300F50852C15213
:1043200000F5085116323631002322F8023B8A424A
:104330001C46F9D142F236226321835242F23822DE
:10434000815442F23C22835000F50952138042F21C
:104350004223C45410BD42F2DA1200230370835288
:1043600042F2D8126321835242F2EC12835042F29D
:104370003822815442F2DC1142F20F72425242F270
:10438000DE11425242F2E011425242F2E611425232
:1043900042F2E811425242F2E211425242F2E41178
:1043A000425242F21422835242F23622835242F2A5
:1043B000F012835242F2F212835442F23C228350B2
:1043C00000F50952138042F24222835470470000E4
:1043D000F7B504464CF280154FF47A504FF0000CBC
:1043E00086462E461FFA8CF3934229D201F10C0324
:1043F00034F91370002F0CDD36B2BE420FFA8EFE78
:10440000B8BF3E467745A8BF7746B6B21FFA87FECB
:1044100009E000B2B8422DB2A8BF3846AF42B8BFDB
:104420002F4680B2BDB24F1DBBB2B3F5875F22BF2E
:10443000A1F586531B3B9BB20CF1010C1946D1E749
:104440000FFA8EF22BB202FA86F203FA80F35210C0
:104450005B10D1184910551AADB200918EB229B235
:10446000019123482349FDF734FB42F2382104F53A
:104470000752635C04F50850632B02F1320200F12D
:1044800012000AD1134623F8026F83425D84FAD1E9
:1044900042F238230021E1540DE004EB430742F2DD
:1044A000F41E013327F80E60DBB242F216260F2B02
:1044B000BD536354ECD842F214210023635242F2FC
:1044C00036216352194632F8025F2B44558C8242E2
:1044D00029449BB289B2F6D142F2142243F30B1362
:1044E000A35242F2362341F30B11E15203B0F0BD67
:1044F000A854002078E300082DE9F04FBDF82440CF
:10450000BDF92880BDF92CC0A71C0134BFB2A4B2EC
:104510004FF0000E1FFA8EF6BD1E9642ADB255D278
:1045200001F10C064FEAE50930F816A0C8EB0A0ABB
:10453000CCF100060FFA8AFAB24505F0070B244EBB
:1045400008DA13F8095016F80BA025EA0A0503F853
:1045500009501FE0BAF1000F08DA13F8095016F8F5
:104560000BA025EA0A0503F8095009E0E24516F810
:104570000B5013F809A04AEA050503F8095009DAB7
:10458000E51004F0070916F809905E5D26EA0906B1
:104590005E550AE04FEAE40904F0070513F809A0A4
:1045A000755D4AEA050503F809504E1DB5B2B5F52B
:1045B000875F22BFA1F586551B3DADB2023702349D
:1045C0000EF1010EBFB2A4B22946A3E7BDE8F08FF9
:1045D000A2E4000842F2D8132DE9F047C35A00EBD9
:1045E000830304465B686E4823F07F4386B05840DF
:1045F000FFF70AFE022800F2CE8042F2DA134FF0F3
:10460000000EE75A07F583550D35ADB2B5F5875F56
:1046100026BFA7F1730189B2294676464FF47A5036
:104620004CF2801301F10C02DFF87CC134F9122046
:104630001EF90CC01BB2934200B2B8BF13469042A1
:10464000A8BF1046BCF1010F9BB280B20AD0BCF1EA
:10465000030F05D0BCF1FF3F06D002EB420203E09E
:1046600002EB4202B61A00E016444A1D92B2B2F5BD
:10467000875F24BFA1F586511B390EF1010E28BFBB
:104680008AB2BEF1180F01D01146CBE742F2EC120C
:10469000A25896427FDD42F23822A25C632A0ED1F4
:1046A0001BB203FA80F042F214224010A0521B1AEF
:1046B00044F63E12534342F23622DB13A35242F237
:1046C0001423B5F5875FE35E019342F2362324BFDE
:1046D000A7F17305ADB20027E35E02930DF1100957
:1046E0004B460097204629461822FFF705FF2378FE
:1046F000BB420CBF4FF0020A4FF0040AB846294BE8
:10470000F85C19F807305840FFF778FD013740444E
:10471000062F5FFA80F8F2D1D0453CD842F2EC1374
:104720000522E65042F2F01342F2E011E25242F268
:10473000DA1342F2E812E35AA35242F2DE12A55211
:1047400003F58352073292B2B2F5875F28BFA3F117
:10475000790262522278E2B942F2E61242F2E211A2
:10476000A35242F2DC12A55203F2BB7292B2B2F52E
:10477000875F28BFA3F62512625203F2BD7292B280
:10478000B2F5875F42F2E4112ABFA3F62313625207
:104790006352012000E0002006B0BDE8F08700BFB2
:1047A000A030FB0072E300085AE3000838B5044665
:1047B000FFF710FFB8B142F2F215635D9BB942F208
:1047C0003C221F48A35004F5095201211380FDF734
:1047D0007BFC1B480121FDF785FC42F23823632254
:1047E000E2540A23635542F2F213E25C0AB1013A41
:1047F000E254E35C012B21D142F2E61342F2E211D2
:10480000E35A03F2BB7292B2B2F5875F28BFA3F6F8
:104810002512625203F2BD7292B2B2F5875F42F284
:10482000E41124BFA3F6231363524FF0010338BFF2
:104830006252237042F2F2130022E25438BD00BFEC
:10484000EC0F002042F2E213F0B5C25A42F2E41338
:1048500042F2DA11C35A415A9A429FB0044607D233
:10486000914208D3994206D82046FFF7B3FE02E0F2
:104870009142F7D3F8E742F2DA13E25A42F2E41334
:10488000E35A9A4240F0E78042F2DC1342F21426E7
:10489000E35A03F1780189B2B1F5875F28BFA3F528
:1048A000835142F236254FF000030093A35F01933A
:1048B00028BF0839635F029328BF89B2082204AB7E
:1048C0002046FFF719FE9DF8113042F2422203F014
:1048D0000F03032BA35475D028D8002B40F09780EA
:1048E00042F2DC172046E15B4FF4C672FFF770FD21
:1048F00042F2E613615FE25E0091A35F57485849B8
:10490000FDF7A0F808230093A35F0193635FE15BC9
:10491000029320464FF4C67205ABFFF7EDFD01236D
:104920008DF814304D4805A964226EE0072B25D080
:104930000F2B6CD142F2DC172046E15BD822FFF747
:1049400047FD42F2E613615FE25E0091A35F4348D8
:104950004449FDF777F808230093A35F0193635F51
:10496000E15B02932046D82205ABFFF7C5FD01238A
:104970008DF81430394805A9372246E042F2DC1799
:104980002046E15BB422FFF723FD42F2E613615FAC
:10499000E25E0091A35F31483349FDF753F80823E5
:1049A0000093A35F0193635FE15B02932046B4220F
:1049B00005ABFFF7A1FD01238DF81430274805A9A9
:1049C0002E2222E042F2DC172046E15B4822FFF76C
:1049D000FFFC42F2E613615FE25E0091A35F1F48B5
:1049E0002249FDF72FF808230093A35F0193635F2B
:1049F000E15B02932046482205ABFFF77DFD0123D2
:104A000016488DF8143005A91322FCF7A9FA42F2D2
:104A1000E81342F2E211E35A03F586521F3292B2D2
:104A2000B2F5875F28BF03F1FF3262525A1C92B27F
:104A3000B2F5875F28BFA3F5865342F2E41124BF85
:104A40001F3B63524FF0020338BF6252237042F2A1
:104A5000EC130022E2501FB0F0BD00BFA8540020AC
:104A600098E3000823E40008C6E30008F5E3000823
:104A700038B500F509550446288868B142F23C2350
:104A8000DB22E358B3FBF0F3C3F3072081F8D9002E
:104A900081F8DA30054801E00448D922FCF792FA9F
:104AA00042F23C220023A3502B8038BDA8540020A2
:104AB00042F2E213F0B5C25A42F2E41342F2DA11C2
:104AC000C35A415A9A42BDB0044607D2914208D314
:104AD000994206D82046FFF77DFD02E09142F7D3C8
:104AE000F8E742F2DA13E25A42F2E013E35A9A424A
:104AF00079D142F2F013E35A052B1AD142F2E813AE
:104B000042F2E211E35A03F586521F3292B2B2F535
:104B1000875F28BF03F1FF3262525A1C92B2B2F58E
:104B2000875F42F2E41125BFA3F586531F3B625213
:104B3000635242F2DE1742F236252046E15B4FF423
:104B40005872FFF745FC42F2142642F2E813615F07
:104B5000E25E0091A35F25482549FCF773FF082317
:104B60000093A35F0193635F0293E15B05AB204673
:104B70004FF45872FFF7C0FC42F2F013E55A013DC2
:104B8000ADB2E55215BB19481A49FCF715FB1A4896
:104B90002946FDF799FA18482946FDF7A3FA134864
:104BA000FCF742FA42F2E01342F20F722570E25231
:104BB00042F238236322E25442F2F213E55442F205
:104BC000EC13E55042F24223E5540CE02B1F5D420A
:104BD0005D41204605A98DF81450FFF749FF42F2C8
:104BE000EC130022E2503DB0F0BD00BFA8540020FD
:104BF00053E4000881E40008EC0F00202DE9F047A1
:104C000004460F4690461E464FF0000AB2454FD06C
:104C100004F5085338F81A10DA6B37F81A000A440A
:104C2000DA6304F5095204F5075513881835013382
:104C300013802A8804EB820201B2536800294FEAEC
:104C4000430304F50759B8BF43F0010309F11A09FA
:104C50005360B9F800300C3324F813002378012B8B
:104C600005D0022B07D12046FFF722FF06E02046A1
:104C7000FFF7E8FD02E02046FFF798FDB9F80030A5
:104C800001339BB2B3F5875F25BF04F509530022BA
:104C9000A9F80030A9F8002028BF9A702B880133AA
:104CA0009BB2042B88BF00232B800AF1010AADE7D9
:104CB000BDE8F087002310B503600371836000F145
:104CC0003C0400F10C03002223F8022BA342FAD18A
:104CD00080F83C2010BD000037B5836890F83C2078
:104CE00000294FEA4303B8BF43F001038360531C1C
:104CF000DBB2172B00EB420280F83C3088BF002368
:104D00009181044688BF80F83C30806820F07F4362
:104D100034485840FFF778FA02282CD804F10A00EA
:104D200004F13A054FF47A524CF2801330F9021F25
:104D30001BB28B4212B2B8BF0B468A42A8BF0A46CA
:104D4000A8429BB292B2F1D118B211B2451A052D08
:104D500011DD0012091200258DF801008DF80310F5
:104D60008DF8042020488DF80050694605228DF802
:104D70000230FCF7C9F9A06820F07F431B48584077
:104D8000FFF742FA02282BD804F10A004FF47A52B6
:104D90003A344CF2801330F9021F1BB28B4212B22C
:104DA000B8BF0B468A42A8BF0A46A0429BB292B245
:104DB000F1D118B211B2441A052C11DD00120912FA
:104DC00080248DF801008DF803108DF8042006482A
:104DD0008DF80040694605228DF80230FCF794F901
:104DE00003B030BD68B4AA00A8540020974B55000A
:104DF000F8B504460E4617460025ABB2BB4223D297
:104E000036F815102379CA0B934209D02368B3F5FD
:104E1000004F2ABF6FF4CC7003F299131B18236064
:104E20002368227103F54C503330B0F5803F01D236
:104E3000206007E0A3F54C43CD3B2360204609B238
:104E4000FFF74AFF0135D8E7F8BD0000F7B50225A6
:104E50003E4E684603F098FB0027284601210124B6
:104E60008DF805508DF806708DF8075003F086FE1A
:104E70004FF480533046694600938DF8044003F0A8
:104E80004BFB2846214603F079FE10233046694645
:104E900000938DF8044003F03FFB2846214603F0C1
:104EA0006DFE08233046694600938DF8044003F0F8
:104EB00033FB2846214603F061FE4FF40053304691
:104EC000694600938DF8047003F026FB28462146BE
:104ED00003F054FE40233046694600938DF80440A9
:104EE00003F01AFB2846214603F048FE20233046F3
:104EF000694600938DF8044003F00EFB28462146D6
:104F000003F03CFE80233046694600938DF8044050
:104F100003F002FB2846214603F030FE4FF4807375
:104F20003046694600938DF8044003F0F5FA2846B0
:104F3000214603F023FE4FF4007330466946009388
:104F40008DF8044003F0E8FA03B0F0BD000402401D
:104F500037B502A94FF4006321F8023D00240DF19A
:104F60000502054618308DF8054002F0B9F92046D3
:104F7000BDF8061003F0BAFB1548022105F0DFF872
:104F800010B9ADF8060007E0114805F033F8ADF8A8
:104F90000600104805F02EF8044602210C4805F0E2
:104FA000D4F80B4804F0FAFFBDF806109DF8052070
:104FB000281D02F06EF905F12C00214600F087FE55
:104FC000D5F824330133C5F8243303B030BD00BF16
:104FD000002001400021014008B54FF08040012130
:104FE00004F044FE48B14FF08040012104F049FE36
:104FF0000248BDE80840FFF7ABBF08BDEC0F00203A
:105000002DE9F041714894B0022105F098F810B1F3
:105010006F48FFF79DFF01A803F0B6FA06A804F059
:1050200043FF0EA804F022FF0220012103F0A6FD99
:105030004FF4807001210024012503F0CFFD0326E9
:1050400001A9644801958DF808608DF80B4003F0C4
:1050500063FA2946022003F091FD29464FF40070BF
:1050600003F0BCFD4FF0020801A95A48CDF80480B6
:105070008DF808608DF80B4003F04EFA062306A861
:10508000069307940894099404F0FAFE0EA94F4879
:105090000E948DF83C408DF83D401094119412947C
:1050A0008DF84C5004F0BCFE2946484804F07FFFC0
:1050B0002A4623464548082104F02EFF2946434846
:1050C00004F0F8FE0EA9444804F0AAFE294642481E
:1050D00004F06DFF23462A463F48092104F01CFFD7
:1050E00029463D4804F0E6FE01A803F04DFA0AA85F
:1050F00003F0BCFA2846294603F040FD29464FF04C
:10510000005003F05FFD102701A9344801978DF886
:1051100008608DF80B4003F0FFF920460AA90A94B5
:105120000B940D9403F08CFA2046294603F0A4FA60
:105130002846294603F046FD2A4628480F2103F059
:105140005FFA4FF4004301A9244801938DF80880C9
:1051500003F0E2F903A804F0EBF9F92303A94FF0F7
:105160008040ADF80C300495ADF80E40ADF8144019
:105170008DF8164004F09EF92346224621464FF052
:10518000804004F009FE29464FF0804004F027FAE1
:105190002A4629464FF0804004F053FD1C23684600
:1051A0008DF800308DF801408DF802508DF80350D5
:1051B00003F054FE3946074803F015FA0548082164
:1051C00003F00FFA14B0BDE8F08100BF00200140E9
:1051D000EC0F0020000402400021014000000240CA
:1051E00008B54FF40051034803F0E9F9431E584253
:1051F000584108BD000402400A460248082103F055
:10520000F4B900BF000402400A4602484FF480513E
:1052100003F0EBB9000402400A460248102103F0F3
:10522000E4B900BF000402400A460248402103F0EE
:10523000DCB900BF000402400A460248202103F006
:10524000D4B900BF000402400A460248802103F09E
:10525000CCB900BF000402400A4602484FF48071F6
:1052600003F0C3B9000402400A4602484FF400713B
:1052700003F0BBB900040240064B40F6B8321B688D
:10528000B3FBF2F221B11346013BFDD10139F9E73D
:10529000704700BF20060020F8B54FF47A6104463D
:1052A000FDF7FAFF04F1100000210C2205F0C9FD02
:1052B00004F128070023A3832362636204F14806F4
:1052C0003B46002223F8022BB342FAD104F1C0027C
:1052D0003346002123F8021B9342FAD104F5AE6253
:1052E000002503F8015B9342FAD1F023A4F874354A
:1052F0002946A4F87055A4F872553846202205F0C6
:10530000A0FD30462946782205F09BFD0523237435
:1053100008236382044B63612023A383034BA761AB
:10532000266263622046F8BD9202002052020020ED
:10533000122AF8B506460F46144616D9FDF7BEFFE9
:10534000A04214D3013C3046E1B2FDF7F9FF00253D
:10535000EBB2A34205F1010505D23B443046597832
:10536000FDF7EEFFF4E70020F8BD0420F8BD0520AE
:10537000F8BD000030B5054699B0002401F0C00228
:10538000802A02AB08D0C02A03D042B94FF65C6233
:1053900007E040F2EC4204E04FF4D27201E04FF635
:1053A000143223F8142001348900042CC9B2E5D149
:1053B00005F11000194604AA234605F02DF805F161
:1053C0001C0004A90EAA142305F022FA002300935E
:1053D000034821460EAA1423FCF718FE19B030BD6D
:1053E000EC0F002070B50446FDF78AFFB4F8705545
:1053F00008B905B970BD55BB274B1B789BB9B4F8EC
:105400007425ABB293420AD2B4F87035591C2344C8
:10541000A4F87015772183F8C0100135F1E7002357
:10542000A4F8723513E02046FDF7B0FF0646EBB254
:10543000B342F4D22046FDF7A9FFB4F870355A1CE8
:105440002344A4F87025013583F8C000EFE7B4F8D1
:105450007035FBB11148FCF733FE0546142D18D901
:10546000B4F872355A1C2344A4F8722593F8C0107E
:105470002046FFF77FFFB4F87225B4F87035143D6D
:105480009A42ADB2EAD30023A4F87235A4F870357D
:1054900070BD70BD70BD00BF5C780020EC0F0020B7
:1054A00001EB4101890001F5167189B2B1F5966FE2
:1054B0008ABF4FF49663A0F87415A0F8743570474E
:1054C00008B5FDF7FBFED823B0FBF3F0C0B208BD72
:1054D0000346002210B503F8042B00F11802002146
:1054E00043F8041B9342FAD100F59651183100227B
:1054F00023F8022B8B42FAD141F2D82341F2DC216E
:10550000C25241F2DA23C25242F20F73435241F2C5
:10551000DE21435200F597510B8041F2E2214352C4
:1055200041F2E421435241F2E823C25041F2EC231C
:10553000C25241F2EE23C25400F5975300F598523F
:1055400010331032002123F8021B9342FAD141F2AA
:105550001033C15200F5985300F5995112331231AE
:10556000002223F8022B8B42FAD141F2323363211D
:10557000C25241F23433C15441F23833C25041F285
:105580003C33C25210BD41F2DA2200230370835231
:1055900041F2D8226321835241F2E822835041F242
:1055A0003432815441F2DC2142F20F72425241F214
:1055B000DE21425200F597510A8041F2E221425227
:1055C00041F2E421425241F21032835241F232322E
:1055D000835241F2EC22835241F2EE22835441F293
:1055E0003832835041F23C3283527047F7B504465B
:1055F0004CF280154FF47A504FF0000C86462E4640
:105600001FFA8CF3934228D201F10C0334F9137082
:10561000002F0CDD36B2BE420FFA8EFEB8BF3E46FA
:105620007745A8BF7746B6B21FFA87FE09E000B2F9
:10563000B8422DB2A8BF3846AF42B8BF2F4680B29D
:10564000BDB24F1DBBB2B3F5166F24BFA1F65B13FD
:105650009BB20CF1010C1946D2E70FFA8EF22BB275
:1056600002FA86F203FA80F352105B10D118491047
:10567000551AADB200918EB229B201912348244946
:10568000FCF727FA41F2343104F59752635C04F5D4
:105690009850632B02F10E0200F10E000AD113465E
:1056A00023F8026F83425D84FAD141F23433002142
:1056B000E1540DE004EB430741F2F02E013327F8EB
:1056C0000E60DBB241F212360F2BBD536354ECD89F
:1056D00041F210310023635241F2323163521946D4
:1056E00032F8025F2B44558C824229449BB289B226
:1056F000F6D141F2103243F30B13A35241F232338D
:1057000041F30B11E15203B0F0BD00BFA8540020DB
:10571000BEE400082DE9F04FBDF82440BDF9289003
:10572000BDF92C8004F1020E01341FFA8EFEA4B2E2
:105730004FF0000C1FFA8CF6AEF102059642ADB2A6
:105740004DD201F10C06EF1030F816A0C9EB0A0A91
:10575000C8F100060FFA8AFAB24505F0070B214E90
:1057600006DADD5D16F80BA025EA0A05DD551BE01B
:10577000BAF1000F06DADD5D16F80BA025EA0A057E
:10578000DD5508E0C24516F80B5013F807A04AEAA9
:105790000505DD5508DAE51004F00707F75D5E5DE5
:1057A00026EA07065E5508E0E71004F0070513F83F
:1057B00007A0755D4AEA0505DD554D1DADB2B5F58D
:1057C000166F24BFA1F65B15ADB20EF1020E0234C6
:1057D0000CF1010C1FFA8EFEA4B22946AAE7BDE81F
:1057E000F08F00BF26E5000841F2D8232DE9F047ED
:1057F000C35A00EB830304465B685C48C3F313039E
:1058000086B05840FEF700FD032800F2AB8041F25D
:10581000DA234FF0000EE55A05F60117BFB2B7F5CF
:10582000166F26BFA5F15F0189B2394676464FF45F
:105830007A504CF2801301F10C02DFF838C134F9D0
:1058400012201EF90CC01BB2934200B2B8BF13461F
:105850009042A8BF1046BCF1010F9BB280B20AD0A3
:10586000BCF1030F05D0BCF1FF3F06D002EB4202B2
:1058700003E002EB4202B61A00E016444A1D92B25F
:10588000B2F5166F28BFA1F65B110EF1010E28BF0D
:105890008AB2BEF1140F01D01146CCE741F2E822E2
:1058A000A25896425EDD41F23432A25C632A0ED1E8
:1058B0001BB203FA80F041F210324010A0521B1AC2
:1058C00044F63E12534341F23232DB13A35241F20B
:1058D0001033B7F5166FE35E019341F2323324BF04
:1058E000A5F15F07BFB20025E35E02930DF1100939
:1058F0004B460095204639461422FFF70BFF2378CC
:10590000AB420CBF4FF0020A4FF0040AA846184BF6
:10591000E85C19F805305840FEF770FC013540444A
:10592000052D5FFA80F8F2D1D0451BD841F2E8236B
:1059300004F59752E65041F2EC2341F2DE21E552A4
:1059400041F2DA230120E35A138041F2DC22A7520C
:1059500003F6FB0292B2B2F5166F2ABF653B6252A4
:10596000635200E0002006B0BDE8F087ADB5070047
:105970002EE50008AAE4000838B50446FFF734FF16
:10598000B8B141F2EE25635D9BB941F238321E4851
:10599000A35041F23C320121A352FCF795FB1A4877
:1059A0000121FCF79FFB41F234336322E2540523CB
:1059B000635541F2EE23E25C0AB1013AE254E35C42
:1059C000012B20D104F5975341F2E2211B8803F605
:1059D0005F1292B2B2F5166F28BF03F1FF32625226
:1059E0005A1C92B2B2F5166F41F2E42124BFA3F61D
:1059F0005F1363524FF0010338BF6252237041F2CC
:105A0000EE230022E25438BDEC0F002041F23C337B
:105A100010B50446C05A68B141F238337B22E358CE
:105A2000B3FBF0F3C3F3072081F8790081F87A30F3
:105A3000064801E005487922FBF740FA41F2383286
:105A40000023A35041F23C32A35210BDA8540020C1
:105A500041F2E223F0B5C25A41F2E42341F2DA21E5
:105A6000C35A415A9A42A5B0044607D2914208D37C
:105A7000994206D82046FFF7B7FE02E09142F7D3DD
:105A8000F8E741F2DA23E25A41F2DE23E35A9A427E
:105A900073D141F2EC2304F59755E35A052B16D147
:105AA0002B8803F65F1292B2B2F5166F41F2E22133
:105AB00028BF03F1FF3262525A1C92B2B2F5166F40
:105AC00041F2E4212ABFA3F65F136252635241F20E
:105AD000DC272046E15B4FF4F072FFF787FDB5F954
