:020000040800F2
:1000000000000220F9C60008F5C60008F5C6000881
:10001000F5C60008F5C60008F5C600080000000097
:10002000000000000000000000000000F5C600080D
:10003000F5C6000800000000F5C60008F5C6000877
:10004000F5C60008F5C60008F5C60008F5C60008A4
:10005000F5C60008F5C60008F5C60008F5C6000894
:10006000F5C60008F5C60008F5C60008F5C6000884
:10007000F5C60008F5C60008F5C60008F5C6000874
:10008000F5C60008F5C60008F5C60008F5C6000864
:10009000F5C60008F5C60008F5C60008F5C6000854
:1000A000F5C60008F5C60008F5C60008F5C6000844
:1000B0000D060008F5C60008F5C60008F5C60008DC
:1000C000F5C60008F5C60008F5C60008F5C6000824
:1000D000F5C6000811920008F5C60008F5C600082C
:1000E000F5C60008F5C60008F5C60008F5C6000804
:1000F000F5C60008F5C60008F5C60008F5C60008F4
:10010000F5C60008F5C60008F5C60008F5C60008E3
:10011000F5C60008E5940008F5C60008F5C6000815
:10012000F5C60008F5C60008F5C60008F5C60008C3
:10013000F5C60008F5C60008F5C60008F5C60008B3
:10014000F5C60008F5C60008F5C60008F5C60008A3
:10015000F5C60008F5C60008F5C60008F5C6000893
:10016000F5C60008F5C60008F5C60008F5C6000883
:10017000F5C60008F5C60008F5C60008F5C6000873
:10018000F5C60008F5C60008044B05481B1A062BE7
:1001900002D9044B03B11847704700BF9F060020E7
:1001A0009C0600200000000005490648091A891035
:1001B00001EBD171491002D0034B03B118477047CE
:1001C0009C0600209C0600200000000010B5064C94
:1001D000237843B9FFF7D8FF044B13B10448AFF3BA
:1001E00000800123237010BDA00600200000000045
:1001F0007472040808B5084B1BB108490848AFF3EE
:1002000000800848036813B9BDE80840CCE7064BF6
:10021000002BF9D09847F7E700000000A406002063
:10022000747204089806002000000000134B002B95
:1002300008BF114B9D46A3F5803A00218B460F461F
:100240001148124A121A0DF08DF80D4B002B00D0F8
:1002500098470C4B002B00D0984700200021040049
:100260000D000B480CF07EFF0CF0AAFF20002900C7
:1002700004F0A0FB0CF07CFF000008000000000070
:100280000000000000000000A0060020A0BD00202B
:1002900099D1000838B54FF4B971044604F11C0532
:1002A00006F0A0FB002222616261A26104F13C0120
:1002B0002B4623F8022B8B42FBD104F2EC420020A8
:1002C00003F8010B9A424FF00001F9D1F023C4F872
:1002D000F034A4F8EC14A4F8EE14202228460DF013
:1002E00041F80523237409236382024B6361A561EE
:1002F000204638BD04000020222A70B506460C4670
:100300000ED106F081FB20280CD904F1210514F848
:10031000011F304606F0BAFBAC42F8D1002070BD98
:10032000042070BD052070BDF0B500238FB04FF4E0
:10033000E37540F252564FF6AE274FF63A6E01F093
:10034000C002802A02AC0BD0C02A06D0002A0CBF03
:1003500072463A4624F8132004E024F8136001E0C2
:1003600024F8135001338A00042BD1B2E7D104AA38
:10037000214610300CF024FA0023009304AA142321
:100380000221024802F090FD0FB0F0BD0C65002084
:10039000B0F8EC3470B5044623B12A4802F0E4FD0D
:1003A00005460DE006F052FB28BB04E0A4F8EC146F
:1003B0000023A4F8EE34B4F8EC34002B41D0ECE781
:1003C000142D3ED9B4F8EE345A1C2344A4F8EE247C
:1003D00093F83C102046FFF7A7FFB4F8EE24B4F8DA
:1003E000EC34143D9A42ADB2EAD30023A4F8EE34C3
:1003F000A4F8EC3470BD144B1B785BB9D4F8F0143E
:100400005F209AB2914203F10103CFD9224482F8CE
:100410003C00F6E704F13B0604F15C05204606F0DB
:100420005BFB06F8010FB542F8D1084900235A5C7E
:1004300005F8012F0133272BF9D14823A4F8EC3418
:10044000B6E770BD0C65002008650020C4D900081F
:1004500008B506F0D9FA2323B0FBF3F0C0B208BD0B
:100460000C234FF4167203FB0121B1F5966F8ABF7E
:100470004FF49663C0F8F014C0F8F03470470000F1
:10048000F7B502253E4E68460AF05CF8002728467C
:10049000012101248DF805508DF806708DF8075064
:1004A0000AF038FD4FF480536946304600938DF8CA
:1004B00004400AF005F8214628460AF02BFD1023D7
:1004C0006946304600938DF8044009F0F9FF214653
:1004D00028460AF01FFD08236946304600938DF830
:1004E000044009F0EDFF214628460AF013FD4FF4C1
:1004F00000536946304600938DF8047009F0E0FF20
:10050000214628460AF006FD4023694630460093FE
:100510008DF8044009F0D4FF214628460AF0FAFC81
:1005200020236946304600938DF8044009F0C8FF47
:10053000214628460AF0EEFC8023694630460093A7
:100540008DF8044009F0BCFF214628460AF0E2FC81
:100550004FF480736946304600938DF8044009F0EB
:10056000AFFF214628460AF0D5FC4FF400736946D8
:10057000304600938DF8044009F0A2FF03B0F0BDAF
:100580000004024037B54FF4006300240DF105026A
:100590000DF1060105461830ADF806308DF805401E
:1005A00008F02AFBBDF8061020460AF06FF8022179
:1005B00014480BF096FF10B9ADF8060007E011489B
:1005C0000BF0E9FEADF806000F480BF0E4FE044620
:1005D00002210C480BF08BFF0A480BF0B0FE9DF88F
:1005E0000520BDF80610281D08F0DFFA214605F1A8
:1005F0002C0006F080FED5F82C330133C5F82C33DF
:1006000003B030BD002001400021014008B50121A8
:100610004FF080400BF0F5FC48B14FF080400121D5
:100620000BF0FAFC0248BDE80840FFF7ABBF08BD7D
:100630000C6500202DE9F041022194B070480BF0C8
:1006400050FF10B16F48FFF79DFF01A809F07AFF36
:1006500006A80BF0F5FD0EA80BF0D4FD0121022039
:100660000AF058FC01214FF48070002401250AF0A3
:1006700081FC032601A9644801958DF808608DF876
:100680000B4009F01DFF294602200AF043FC2946D1
:100690004FF400700AF06EFC4FF0020801A95A48AE
:1006A000CDF804808DF808608DF80B4009F008FF44
:1006B000062306A806930794089409940BF0ACFD52
:1006C0000EA94F480E948DF83C408DF83D40109493
:1006D000119412948DF84C500BF06EFD2946484849
:1006E0000BF036FE23462A46082145480BF0E0FD74
:1006F000294643480BF0AAFD0EA944480BF05CFDC7
:10070000294642480BF024FE23462A4609213F4849
:100710000BF0CEFD29463D480BF098FD01A809F0ED
:1007200011FF0AA809F080FF294628460AF0F2FBCB
:1007300029464FF000500AF011FC102701A9344857
:1007400001978DF808608DF80B4009F0B9FE0AA9F1
:1007500020460A940B940D9409F050FF2946204638
:1007600009F068FF294628460AF0F8FB2A460F21BF
:10077000274809F023FF4FF4004301A924480193BF
:100780008DF8088009F09CFE03A80BF0AFF8F92360
:1007900003A94FF08040ADF80C300495ADF80E4041
:1007A000ADF814408DF816400BF062F8234622464F
:1007B00021464FF080400BF0BBFC29464FF08040B3
:1007C0000BF0EBF82A4629464FF080400BF035FC41
:1007D0001C2368468DF800308DF801408DF80250DA
:1007E0008DF803500AF006FD3946074809F0D9FE96
:1007F0000821054809F0D3FE14B0BDE8F08100BF20
:10080000002001400C65002000040240002101404E
:100810000000024008B54FF40051034809F0ADFE56
:10082000431E5842584108BD000402400A4602488F
:10083000082109F0B8BE00BF000402400A46024881
:100840004FF4805109F0AFBE000402400A4602484E
:10085000102109F0A8BE00BF000402400A46024869
:10086000402109F0A0BE00BF000402400A46024831
:10087000202109F098BE00BF000402400A46024849
:10088000802109F090BE00BF000402400A460248E1
:100890004FF4807109F087BE000402400A46024806
:1008A0004FF4007109F07FBE0004024038B5074CD8
:1008B0000D460A462046402109F075FE2A4620468C
:1008C0002021BDE8384009F06EBE00BF00040240A0
:1008D00038B5074C0D460A462046402109F063FE14
:1008E0002A4620468021BDE8384009F05CBE00BFA2
:1008F00000040240064B40F6B8321B68B3FBF2F22C
:1009000021B11346013BFDD10139F9E7704700BF22
:100910002C06002030B5002200240025C0E9004547
:100920008260C260028242618261027730BD000053
:10093000F0B500240025C0E900450C4E2501AF5D4F
:100940008F4206D109490D44D5E90245C0E9004569
:1009500002E00134322CF1D1D0E9004554EA05011E
:100960001DBF8260C36000200420F0BD10DA0008C3
:100970002DE9F743044601EB610163696568276867
:10098000D4F818E0007FA3614FEAE37903FB05F296
:1009900007FB0922A3FB078991444FEAD87242EA78
:1009A000490202F31E02CEEB42021144228A616127
:1009B000013292B241F2707E00F0FE067245267757
:1009C000228250D181FB01894FEAD87E4EEA490E3E
:1009D00083FB03894FEAD87C4CEA490C83FB0189ED
:1009E0004FEAD87848EA490808F31E034FEAE3794A
:1009F0005D4307FB0955A3FB078900F00203002BA9
:100A0000A944A3680EF31E0E0CF31E0C4FEAD87215
:100A1000E64418BFE36842EA490202F31E02AEEB65
:100A2000420214BF012500259342C8BF20F00300F5
:100A300046F00101CCBF40F0010046F003062177EB
:100A4000D4BF26772077217FC1F340018D4206D0A5
:100A500000911BB212B20649064801F042FF002382
:100A600023826361A361207F03B0BDE8F08300BFF0
:100A7000EBD900082830002000234361836103770D
:100A80000382704710B5044605F040FD002323752E
:100A900063752361204610BD38B5457D0446EDB928
:100AA000037D93B1012B12D1036919430161C1F395
:100AB000072105F07BFDA17C204605F077FDE17C58
:100AC000204605F073FD256101E009030161237DE6
:100AD0000133DBB2012B88BF00232375637D013313
:100AE000DBB2022B88BF0023637538BD38B54FF4E5
:100AF0007A61044604F11C0505F074FF002222828D
:100B00006261A26104F5B8712B4623F8022B8B4277
:100B1000FBD104F50E72002003F8010B9A424FF04E
:100B20000001F9D14823A4F83C32A4F83812A4F803
:100B30003A124FF4AA7228460CF014FC06232382C2
:100B4000024B6561A361204638BD00BF5E000020F6
:100B500008B5B0F8383213B905F078FF00B10120BC
:100B600008BD442A70B506460C460ED105F04CFF70
:100B700043280CD9651E433415F8011F304605F093
:100B800085FFA542F8D1002070BD042070BD05206E
:100B900070BD000070B50646ADF5227D0D460024FF
:100BA0002B0602AB4CBF0F490F49181928222834D5
:100BB0000CF03EFB6D00B4F5A07FEDB2F0D152AA6F
:100BC00002A906F11000A0230BF0F6FF002300930A
:100BD00052AAA0230621054802F066F90DF5227DF0
:100BE00070BD00BF58DD000830DD00080C65002036
:100BF00038B5044605F02AFFB4F8383208B903B90D
:100C000038BD3BBB254A12789AB9B4F83C52AA21A8
:100C10009AB2954203D80023A4F83A321AE0B4F805
:100C20003822501C2244A4F83802013382F8701193
:100C3000EEE74425204605F04FFFB4F83832013D79
:100C40005A1C234415F0FF05A4F8382283F87001DC
:100C5000F0D1E0E7B4F83832F3B1114802F084F98A
:100C60000546A02D18D9B4F83A325A1C2344A4F8EA
:100C70003A2293F870112046FFF78CFFB4F83A221D
:100C8000B4F83832A03D9A42ADB2EAD30023A4F8BA
:100C90003A32A4F8383238BD38BD00BF08650020AC
:100CA0000C65002001EB41014908483189B29629C1
:100CB0008ABF9623A0F83C12A0F83C32704708B5D2
:100CC00005F0A2FE4423B0FBF3F0C0B208BD002241
:100CD00002704280704700001FB50446994803F037
:100CE000FDFA2378002B00F02A81964803F0B8FB28
:100CF000042840F224819448002301A91A5C5A5424
:100D000001330C2BFAD162881520B2FBF0F300FB03
:100D100013239BB2002B00F0E080012A04D1302382
:100D20008DF80D3002239EE0022A01D1342397E092
:100D3000032A04D131238DF80D306F2393E0042A68
:100D400007D11F238DF80D302B238DF80E30F6239D
:100D5000C1E0052A04D132238DF80D3022238EE024
:100D6000062A07D124238DF80D302A238DF80E3062
:100D7000E023B0E0072A04D133238DF80D303B2364
:100D80007DE0082A77D0012B07D125238DF80D307F
:100D90004F238DF80E3093239DE0022B07D1702353
:100DA0008DF80D300B238DF80E30DA2393E0032BF2
:100DB00001D1252310E0042B04D133238DF80D300D
:100DC0001B235CE0052B04D125238DF80D306F2308
:100DD0003DE0062B04D139238DF80D301D235AE058
:100DE000072B07D125238DF80D300C238DF80E30FD
:100DF000C72370E0082B04D150238DF80D306F23EA
:100E000007E0092A77D0092B07D125238DF80D306B
:100E10001E238DF80E30D0235DE00A2A6ED00A2BF7
:100E200007D121238DF80D300C238DF80E30C2230D
:100E300051E00B2A65D00B2B01D125231CE00C2A95
:100E400062D00C2B07D13D238DF80D3002238DF895
:100E50000E30D7233FE00D2A59D00D2B07D1252383
:100E60008DF80D3019238DF80E30DE2333E00E2A75
:100E700050D00E2B07D150238DF80D306F238DF8F5
:100E80000E30B32327E00F2A56D00F2B07D125238E
:100E90008DF80D301B238DF80E30D6231BE0102A61
:100EA0000BD0102B07D123238DF80D301B238DF889
:100EB0000E303A230FE0112A06D0112B04D1212342
:100EC0008DF80D30252303E016238DF80D302923EE
:100ED0008DF80E30F5238DF80F300C22194803F0F1
:100EE000A9F8638840F276210133B3FBF1F201FBEC
:100EF0001233638023E00A2B0FD192E70B2B0FD123
:100F00009BE70C2B9FD00EE00D2B0FD1A7E70E2BEC
:100F1000B1D00EE00F2B0FD1B9E70B2B8DD090E79E
:100F20000C2B90D099E70D2B99D0A2E70E2BACD1CA
:100F3000A1E70F2BB5D1AAE7102BBED1B3E704B0C0
:100F400010BD00BFDC100020A9DD0008012A38B563
:100F5000044615D10B78012B0CBF01250025037821
:100F600007D153B9438029220649074803F03CF8CA
:100F700003E013B1044803F083F82570002038BD66
:100F8000042038BD80DD0008DC1000200022026053
:100F90008280C280704700002DE9F8431446214A40
:100FA0000546002312F833001E4F884204D1DBB2FD
:100FB00017EBC30704D12EE00133322BF2D12AE024
:100FC00028687B88AB8008B10CF08AF8A8884000BC
:100FD0000CF084F804EB44060021286004EB86063C
:100FE0008846AB888CB2A34201F1010916D940466C
:100FF0000CF058F82A68C317A0FB060106FB031182
:10100000C30F43EA410303F30F0322F814307B6854
:1010100049469844E5E70420BDE8F8830020BDE890
:10102000F88300BFB8DD0008C3885A1C92B210B51F
:101030000468C28034F91330848894429CBF002233
:10104000C28011B1584200B210BD184610BD024610
:10105000002310B502F8013B00F2E934194602F80A
:10106000011BA2424FF00003F9D1A0F8EA33A0F827
:10107000EC33A0F8EE33A0F8F033C0F8F433A0F866
:10108000F833A0F8FA33A0F8FC33A0F8FE3310BD13
:101090002DE9F74F0446DFF80C81DFF80C910020B2
:1010A000A4F8EA03C5B211F805E0BEF1000F48D07C
:1010B00000260C27F5B27D4308EB050718F805500C
:1010C000002D3CD0AE4506F10106F2D13D7A0195E6
:1010D0004FF0000C4FF0004E019E5FFA8CF5AE42CF
:1010E0002DD97E68B4F8EA533EEA06064FEAE50ACF
:1010F0000CBF04EB0A0604EB0A0605F0070B0BBF56
:101100007678767819F80BB019F80BB0A2440CBFBA
:101110004BEA060626EA0B068AF8016040F2E23640
:10112000B5420CF1010C04D90023A4F8EA330420E1
:1011300035E00135A4F8EA534FEA5E0ECCE7013002
:10114000B0E79DF83010D4F8F403A4F8FC139DF830
:101150003410A4F8FE1345F6C051B1FBF2F2B1FB16
:10116000F3F3A4F8EE23A4F8F83308B10BF0B8FFBA
:10117000B4F8F8030BF0B2FFB4F8F813C4F8F403B2
:1011800003464C08002501261A1A92B2914205D94D
:1011900094428CBF1E701D700133F5E7002003B030
:1011A000BDE8F08F48DF000858E10008037810B56B
:1011B000002B3ED0B0F8EC231F4C00EBD20302F022
:1011C00007015B78615C0B400CD0B0F8FA33D0F8C3
:1011D000F413CB5C13B1B0F9FC3303E0B0F8FC338B
:1011E0005B421BB2B0F8FA13B0F8F843013189B290
:1011F0008C42A0F8FA139CBF0021A0F8FA13B0F8B3
:10120000F013B0F8EE43013189B28C42A0F8F0132C
:101210000FD80132B0F8EA4392B200219442A0F80C
:10122000EC23A0F8F0139EBF0170A0F8EC13A0F817
:10123000FA13184610BD00BF58E10008037810B536
:10124000002B3ED0B0F8EC231F4C00EBD20302F091
:1012500007015B78615C0B400CD0B0F8FA33D0F832
:10126000F413CB5C13B1B0F9FE3303E0B0F8FE33F6
:101270005B421BB2B0F8FA13B0F8F843013189B2FF
:101280008C42A0F8FA139CBF0021A0F8FA13B0F822
:10129000F013B0F8EE43013189B28C42A0F8F0139C
:1012A0000FD80132B0F8EA4392B200219442A0F87C
:1012B000EC23A0F8F0139EBF0170A0F8EC13A0F887
:1012C000FA13184610BD00BF58E100080023037050
:1012D000A0F8EC33A0F8F033A0F8FA3370470078A8
:1012E0007047B0F8EC3343B9B0F8F0332BB9B0F82D
:1012F000FA03003018BF012070470120704708B57D
:101300000246FFF7EEFF38B901231370A2F8EC0391
:10131000A2F8F003A2F8FA0308BD000030B58BB0C4
:10132000C57A047A8378427801780995857A089598
:10133000457A0795E50904F07F0406950594C4797C
:101340000494847903944479029404790194C078D4
:10135000009001EB8101024804F0BAFB0BB030BDF4
:101360008092002010B50246044600F580710020EE
:1013700002F8010B8A424FF00003F9D184F80031E2
:1013800084F8013184F802314FF4B97104F58270A8
:1013900005F028FB204610BD1FB570228DF80E20E9
:1013A00082788DF80F20E02300228DF80C30009217
:1013B000042303AA01218DF80D3008F0CEF905B001
:1013C0005DF804FB1FB57F228DF80A2082788DF826
:1013D0000B20E02300228DF808308DF80C10052337
:1013E0000092012102AA8DF8093008F0B6F905B083
:1013F0005DF804FB2DE9F047824688B0774802F09B
:10140000B2F800228DF80F20754AE0238DF80C30D9
:1014100011780D238DF80D3001238DF80E30914693
:1014200009B18DF80F306F4B1A7898462AB19DF8A4
:101430000F3043F002038DF80F306B4F3B782BB128
:101440009DF80F3043F004038DF80F30674E33786A
:101450002BB19DF80F3043F008038DF80F30644D29
:101460002B782BB19DF80F3043F010038DF80F301F
:10147000604C23782BB19DF80F3043F020038DF89A
:101480000F305D4B1B782BB19DF80F3043F04003BC
:101490008DF80F30594B51481B788DF81030584B50
:1014A0000DF10B021B788DF811300DF10A0102F0DD
:1014B00042F89DF80A302BB19DF8113043F0020339
:1014C0008DF81130454802F04BF828B19DF81130E5
:1014D00043F004038DF81130404802F03EF828B183
:1014E0009DF8113043F008038DF811303B4802F0AD
:1014F00041F828B19DF8113043F010038DF81130F8
:101500009DF80B302BB19DF8113043F020038DF87E
:1015100011303C4A9DF811301278002A14BF402245
:10152000002213438DF8113099F800302BB1364862
:1015300002F096FF8DF8120001E08DF8123098F855
:101540000030A3B1314B1B7843B1314803F0FCFCB0
:101550008DF813002E4803F0FFFC05E00A232D4808
:101560008DF81330FEF774FF8DF8140003E08DF84A
:1015700013308DF814303B782BB1274802F0F2FC81
:101580008DF8150001E08DF8153033782BB1234824
:1015900005F01AFA8DF8160001E08DF816302B7858
:1015A0002BB11F4807F070FD8DF8170001E08DF892
:1015B000173023782BB11B48FFF781FB8DF81800FB
:1015C00001E08DF818300023009303AA0D230121B8
:1015D000504608F0C2F808B0BDE8F0870C6500205E
:1015E0005D0200205C0200205B0200205E02002001
:1015F0005A0200205F020020590200208833002098
:101600000865002089330020DC10002058020020EB
:101610008C33002064B00020B89B00207834002078
:10162000480B00203C31002010B5A8B0E0238DF815
:101630000830002201230D4C8DF80A208DF80B3064
:10164000D1B2131D615CDBB2013229B10DF1A00EE4
:10165000734403F8981CF3E7009102AA01218DF866
:10166000093008F07AF828B010BD00BF66E5000820
:101670002DE9F04F072A97B035D989464B7819F8EC
:10168000060F0C788D78CE780F7991F805E0A2F1ED
:10169000080B5FFA8BFB03EB83030BF1070B00F0E6
:1016A000010CC0F340085B00C0F380000DF1230A79
:1016B000594419F801BF0AF801BF8945F9D1D11F72
:1016C00016AA52FA81F1002201F8342C0690CDF8C6
:1016D0001480CDF810C08DE8E040224609A90448E6
:1016E00004F092F900E0042017B0BDE8F08F00BFCD
:1016F00080920020F0B5052A93B029D9C8784B789C
:101700000E788F7800EB80000C464500901FC0B229
:1017100003EB8303053014F804EF5B000DF1130CA9
:10172000014414F8010F0CF8010F8C42F9D1511F3C
:1017300012AA52FA81F1002201F8342C0648CDF8A1
:1017400008E001950097324605A904F09DF900E0F4
:10175000042013B0F0BD00BF809200200B2A02D9F4
:101760000846FFF7DBBD0420704710B54FF4E132A7
:101770000446012107F0C6FF20464FF4165203210C
:10178000BDE8104007F0BEBFF0B5154B1B78012B2C
:1017900091B023D8134B1B7803B3E0238DF80C30A2
:1017A000CDB210238DF80E30C5F10307CBB2DC1992
:1017B0005B1BDBB29A42E4B206D910AB234411F8AA
:1017C000016B03F8346CF1E7D31C0022DBB200920A
:1017D000012103AA8DF80D3007F0BFFF11B0F0BD55
:1017E000883300205D020020F0B5154B1B78012BDB
:1017F00089B023D8134B1B7803B3E0238DF80C304A
:10180000CDB211238DF80E30C5F10307CBB2DC1930
:101810005B1BDBB29A42E4B206D908AB234411F851
:10182000016B03F8146CF1E7D31C0022DBB20092C9
:10183000012103AA8DF80D3007F08FFF09B0F0BD2C
:10184000883300205D0200201FB50C4B1B78012B54
:1018500011D80B4B1B7873B11222E0238DF80E20A8
:1018600000228DF80C300092032303AA01218DF889
:101870000D3007F072FF05B05DF804FB88330020DF
:101880005D0200201FB50C4B1B78012B11D80B4BB0
:101890001B7873B11322E0238DF80E2000228DF8FF
:1018A0000C300092032303AA01218DF80D3007F0BC
:1018B00054FF05B05DF804FB883300205D02002072
:1018C000F0B5184C247814F0FD0F8DB027D1164CCC
:1018D000247824B300294FF0E00414BF1A21182102
:1018E000D5B28DF808408DF80A10C5F10307D1B2C2
:1018F000CC19491BC9B28B42E4B206D90CA92144C8
:1019000012F8016B01F8286CF1E700220333DBB217
:101910000092012102AA8DF8093007F01EFF0DB0D8
:10192000F0BD00BF883300205C0200201FB50E4BC5
:101930001B7813F0FD0214D10C4B1B788BB10029DE
:101940004FF0E00314BF1B2119218DF80C308DF8E6
:101950000E1003230092012103AA8DF80D3007F029
:10196000FCFE05B05DF804FB883300205C0200201B
:10197000F0B5164B1B78032BA5B000D01BBB144B46
:101980001B7803B3E0238DF80C30CDB220238DF803
:101990000E30C5F10307CBB2DC195B1BDBB29A42F8
:1019A000E4B206D924AB234411F8016B03F8846C2C
:1019B000F1E7D31C0022DBB20092012103AA8DF8CB
:1019C0000D3007F0CAFE25B0F0BD00BF88330020FF
:1019D0005B0200201FB50D4B1B78032B00D08BB989
:1019E0000B4B1B7873B12122E0238DF80E200022CF
:1019F0008DF80C300092032303AA01218DF80D30DD
:101A000007F0ABFE05B05DF804FB00BF8833002093
:101A10005B020020F0B5164B1B7813F0FB0FA1B052
:101A200023D1144B1B7803B3E0238DF80830CDB2DB
:101A300030238DF80A30C5F10307CBB2DC195B1BEC
:101A4000DBB29A42E4B206D920AB234411F8016B11
:101A500003F8786CF1E7D31C0022DBB2009201217D
:101A600002AA8DF8093007F078FE21B0F0BD00BF62
:101A7000883300205E020020F0B5164B1B7813F06F
:101A8000FB0FC3B023D1144B1B7803B3E0238DF8B5
:101A90000C30CDB231238DF80E30C5F10307CBB237
:101AA000DC195B1BDBB29A42E4B206D942AB234499
:101AB00011F8016B03F8FC6CF1E7D31C0022DBB2D8
:101AC0000092012103AA8DF80D3007F046FE43B0C5
:101AD000F0BD00BF883300205E0200201FB50C4B14
:101AE0001B7813F0FB0210D10A4B1B786BB1E0237B
:101AF00032218DF80C308DF80E1003230092012155
:101B000003AA8DF80D3007F028FE05B05DF804FB40
:101B1000883300205E020020F0B5164B1B78052BA1
:101B2000A5B000D01BBB144B1B7803B3E0238DF88A
:101B30000C30CDB240238DF80E30C5F10307CBB287
:101B4000DC195B1BDBB29A42E4B206D924AB234416
:101B500011F8016B03F8846CF1E7D31C0022DBB2AF
:101B60000092012103AA8DF80D3007F0F6FD25B093
:101B7000F0BD00BF883300205A0200201FB50D4B76
:101B80001B78052B00D08BB90B4B1B7873B141220E
:101B9000E0238DF80E2000228DF80C3000920323F4
:101BA00003AA01218DF80D3007F0D7FD05B05DF8CF
:101BB00004FB00BF883300205A020020F0B5144B0C
:101BC0001B78632BA5B020D1E0238DF80C30CDB26B
:101BD00008238DF80E30C5F10307CBB2DC195B1B6F
:101BE000DBB29A42E4B206D924AB234411F8016B6C
:101BF00003F8846CF1E7D31C0022DBB200920121D0
:101C000003AA8DF80D3007F0A8FD25B0F0BD00BF88
:101C100088330020F0B5144B1B78602B8BB020D19B
:101C2000E0238DF80830CDB209238DF80A30C5F1D4
:101C30000307CBB2DC195B1BDBB29A42E4B206D9D4
:101C40000AAB234411F8016B03F8206CF1E7D31CB5
:101C50000022DBB20092012102AA8DF8093007F0C0
:101C60007CFD0BB0F0BD00BF8833002010B590F8AC
:101C70000231A4B0CBB1E0238DF80C30F1238DF804
:101C80000E300022D4B2D31C0C5DDBB201322CB179
:101C90000DF1900E734403F8844CF3E70121009199
:101CA00003AA8DF80D3007F058FD24B010BD0000D8
:101CB0005F2910B50C4650D021D8052945D00FD842
:101CC00002293BD006D8012959D14C494C48FFF78D
:101CD000CDFF70E0032936D0042950D1494947E0AF
:101CE0005B2944D005D8062931D00A2947D1464975
:101CF0003EE05C2939D05D2941D1444938E066296C
:101D000031D00CD8622926D003D8602937D1404978
:101D10002EE063291DD0652931D13E4928E069298B
:101D20001FD005D867291AD0682928D13A491FE061
:101D30006A2918D06B2922D1384919E0384930482E
:101D4000FFF794FF21E0374912E0374910E03749A7
:101D50000EE037490CE037490AE0374908E03749D7
:101D600006E0374904E0374902E0374900E03749E7
:101D70002348FFF77BFF364805F0BAFF0AE03549F4
:101D80001F48FFF773FF012C15D0314805F0B0FF55
:101D9000022C2FD0304802F08EFB304805F03CFB7F
:101DA0002F4806F07BFC032C0ED12E4807F056FD81
:101DB000052C13D00DE0284802F07DFB274805F0E4
:101DC0002BFB274806F06AFC274804F0F7FE042C9A
:101DD000EBD1264803F092FA0A2C02D0244803F0F3
:101DE000DDFD244808F0D4FA21462348BDE8104020
:101DF00001F0D0B81C4804F0E1FED6E770E100081D
:101E0000283000209DE10008D1E10008EBE2000845
:101E100017E2000855E300088EE20008CCE2000853
:101E200060E1000883E10008ADE10008BEE10008C0
:101E3000E0E10008FDE1000832E200086DE2000880
:101E4000ADE200084EE200080DE3000832E30008AE
:101E5000A061002072E30008F8390020C07B002058
:101E600080130020483F002040680020B8A00020D8
:101E700080920020580700200C6500202DE9F04FCB
:101E8000142A9FB001D8042021E10D78C5F3001376
:101E900080F802318E78322EF5D84C7891F803E034
:101EA00004F0020204F0040304F0080A04F010092C
:101EB00004F0200804F04007BEF1060FD2B2DBB2F6
:101EC0005FFA8AFA5FFA89F95FFA88F8FFB210D9E7
:101ED000BEF10A0F35D0AEF15B0C5FFA8CFCBCF1A1
:101EE000100FD0D8DFF838B22BFA0CFC1CF0010F21
:101EF00004E0BEF1010F03D114F0010FC3D022E0C2
:101F0000BEF1020F02D1002ABDD01CE0BEF1030FCA
:101F100002D1002BB7D016E0BEF1040F03D1BAF105
:101F2000000FB0D00FE0BEF1050F03D1B9F1000FE3
:101F3000A9D008E0BEF1060F05D1B8F1000FA2D07C
:101F400001E0002F9FD091F806B0BBF10F0F9AD897
:101F50001D930B790D93CB790E934B790F934B7A9D
:101F600091F80DC010938B7A1193CB7A1293ACF148
:101F7000800C0B7B13930FFA8CF391F80EC0149323
:101F8000ACF1800C0FFA8CF31593CB7B16930B7C82
:101F900017934B7C18938B7C1993CB7C1A930B7DF6
:101FA0001C9271461B93FFF783FE4A491C9A1D9BA6
:101FB000494804F0010400320C70484918BF01225E
:101FC0000A700033464A18BF012313701AF1000A41
:101FD000444B454A18BF4FF0010A83F800A019F19D
:101FE0000009424B18BF4FF0010983F8009018F127
:101FF00000083F4B18BF4FF0010883F800800037FE
:102000003C4B18BF01271F70EB43C3F3C01331468D
:10201000137002F015FA3146374801F093FF31464C
:10202000364804F0C1FC31463548FEF719FA31460E
:10203000344807F019F831463348FEF733FE594665
:10204000324803F0F3F85946314806F00FFB0E9979
:102050002F4806F017FB59462E4805F09FFB5946BE
:102060002D4802F0E1FB179A2348C5F3C00101F0A7
:1020700081FF1A99214804F0AFFC1B99214807F011
:102080000BF8C5F340130B93159B0A93149B09930C
:10209000199B0893189B0793169B0693139B059314
:1020A000129B0493119B0393109B02930F9B01932C
:1020B0000D9B0093C5F34002C5F3800305F00101B9
:1020C000164801F0D9F9154800F0C2FF00201FB0F2
:1020D000BDE8F08F5D020020DC1000205C020020D3
:1020E0005B0200205E020020580200205A020020FD
:1020F0005F02002059020020B89B002078340020A5
:1021000064B00020480B00203C3100208C330020BC
:1021100080130020C07B0020F83900200C650020CF
:10212000BFFD010008B5002A32D01A4B09781B7890
:102130008B422BD006290CD90A2922D0A1F15B03AE
:10214000DBB2102B24D8144A22FA03F3DB071BD48A
:102150001EE0012901D1114B14E0022901D1104BDD
:1021600010E0032901D10F4B0CE0042901D10E4BE3
:1021700008E0052901D10D4B04E0062904D10C4BE0
:1021800000E00C4B1B781BB1FFF792FD002008BD4F
:10219000042008BD88330020BFFD01005D0200203F
:1021A0005C0200205B0200205E0200205A02002038
:1021B0005F0200205902002070B590F80231A4B0EF
:1021C00023B3E0238DF80C30F2238DF80E30002578
:1021D000ECB2E31C0E5D0DF1900E01355EFA83F357
:1021E00016B103F8846CF3E7111203F8841C631D25
:1021F00024A9043451FA84F4012104F8842CDBB2BC
:10220000009103AA8DF80D3007F0A7FA24B070BD35
:102210002DE9F043B64DB74F85B004462E46012157
:10222000204607F079FA8046002800F0E18201217B
:10223000204607F088FA94F8002152B9E02803BF3D
:102240000123207084F8003184F8002184F80121F2
:10225000E5E7012A06D10223607084F8010184F8C1
:102260000031DCE7A05402F1010894F801315FFA73
:1022700088F8434584F80081D1D1A3781C2B00F065
:10228000CB8129D8082B00F0988010D8022B56D08B
:1022900008D8002B4FD0012B40F06F822046FFF76B
:1022A000A9F86EE2032B51D0042B60D065E2112B0C
:1022B00000F0088106D80A2B00F0D780102B00F020
:1022C000E7805AE2182B00F04C811A2B00F0638152
:1022D000132B40F0528231E1502B00F0278214D8AA
:1022E000202B00F0BF8106D81D2B00F071811E2B22
:1022F00000F0A58141E2312B00F0E881402B00F095
:10230000FC81302B40F03982C6E1622B27D004D803
:10231000602B30D0612B3AD02FE2802B06D0C0F05A
:102320002C82903B012B40F22C8226E24FF00308D6
:1023300004F5827913E22046FFF776F921E2023AAA
:10234000D2B2E11C2046FFF799FD05E0023AD2B275
:10235000E11C2046FFF7E6FE014640B10EE2023ADC
:102360000B2A24D9E01CFEF7D9FF804608BB204683
:10237000FFF712F805E2023AD2B2E11C2046FFF75D
:1023800077F980460028F2D002B25B490AE0023AAF
:10239000D2B2E11C2046FFF7ADF980460028E6D016
:1023A000564902B25648FFF707FF4146E6E14FF0B3
:1023B00004080FFA88F25349F4E72B78632B07D10E
:1023C000023AD2B2E11C5048FEF7C0FD804601E05F
:1023D0004FF0020833785C3BDBB2062B0DD84D2260
:1023E00022FA03F3DB0708D594F801214748033AA2
:1023F000D2B2E11C06F02CFB80463378663B052BFD
:1024000008D894F801214248033AD2B2E11C05F001
:102410001BFC804633785D2B08D194F801213D48A0
:10242000033AD2B2E11C06F059FB804633785B2BAD
:1024300008D194F801213848033AD2B2E11C00F0E7
:102440006DFB80463378652B08D194F80121334821
:10245000033AD2B2E11C04F04FF98046B8F1000F04
:1024600085D00FFA88F22E499CE72B7853B9023AAF
:10247000D2B2E11C2B4807F019FF8046002800F07B
:10248000808101E04FF005080FFA88F2264989E7BC
:10249000264B1B7883B12B78012B0DD8023AD2B290
:1024A000E11C234801F0A0FD804638B92B78002BB1
:1024B00040F0678101216AE04FF002080FFA88F2CC
:1024C0001C496FE7194B1B7863B12B78012B09D896
:1024D000023AD2B2E11C164801F0ACFD8046002859
:1024E000E4D001E04FF002080FFA88F2124959E7F0
:1024F000883300205C02002083E30008A0E300088A
:1025000028300020BDE3000860B0002034B0002077
:102510008C610020B4A0002009650020460B00203B
:10252000DAE3000858070020FCE300085D02002001
:10253000DC1000200FE400082EE40008944B1B7808
:102540004BB12B78012B06D8924801F099FD8046BB
:102550000028ABD001E04FF002080FFA88F28E4954
:1025600020E73B7873B32B7813F0FD0F2AD18B4B08
:102570001B783BB3023AD2B2E11C894802F0E4FB7B
:10258000804608BB2B78002B40F0FB8002212046C0
:10259000FFF78EFBF5E03B78A3B12B7813F0FD0F2E
:1025A00010D17E4B1B78023AE11CD2B21BB17C48A1
:1025B00002F0F4FB02E07B48FDF79EFE804618B96E
:1025C0003378E0E74FF002080FFA88F27649E9E63F
:1025D0003B78E3B1B8F1040F40F04281E178012982
:1025E00008D12B78022B14D1704B1B78002B40F0B4
:1025F000C88008E069B92B78022B0AD16B4B1B7895
:10260000002B00F0BE80664802F044FCB9E04FF0B9
:10261000020842466649C5E63B7853B1023AD2B257
:10262000E11C5F4802F0E8FB8046002800F0A9802A
:1026300001E04FF002080FFA88F25E49B2E63B78FB
:1026400053B1023AD2B2E11C554802F00DFC80466B
:10265000002800F0968001E04FF002080FFA88F29F
:1026600055499FE6554B1B7883B12B780BB1032B53
:102670000CD1023AD2B2E11C514801F06DFB804608
:1026800030B93378002B7CD1032180E74FF002086A
:102690000FFA88F24B4985E64B4B1B7883B12B78B8
:1026A00013F0FB0F0CD1023AD2B2E11C474804F000
:1026B0007FF8804630B92B78002B62D1042166E781
:1026C0004FF002080FFA88F241496BE63E4B1B7847
:1026D0006BB12B7813F0FB0F09D1023AD2B2E11C97
:1026E0003A4804F065F880460028E4D001E04FF055
:1026F00002080FFA88F2374954E6374B1B787BB152
:102700002B780BB1052B0BD1023AD2B2E11C334826
:1027100006F0ACFB804628B9337893BB052136E739
:102720004FF002080FFA88F22D493BE62D4B1B783B
:102730007BB12B780BB1062B0BD1023AD2B2E11C44
:102740002948FEF70EFA804628B93378CBB906211E
:102750001DE74FF002080FFA88F2244922E694F8A8
:10276000013143450DD914F80810484608F1010815
:1027700004F08CF95FFA88F8F1E701212046FEF7B2
:1027800021FE002384F8003184F8013147E500BFC1
:102790005D020020DC1000204BE4000858020020FD
:1027A0008C33002064B0002067E400080865002036
:1027B00081E400089CE40008BAE400085B02002001
:1027C000B89B0020D5E400085E0200207834002089
:1027D000F9E4000815E500085A020020480B002023
:1027E0002EE500085F0200203C31002049E500088A
:1027F0001E4800F0BCFE4BF67F33984204F582770A
:1028000084BF84F8008184F80181384604F01EF901
:102810000646D8B10321204606F08BFF0025B042C2
:10282000B8BF86B2A846ABB29E420FD9384604F074
:1028300053F9CDF800808DF80F0001230DF10F0240
:102840000321204606F089FF0135ECE703212046ED
:1028500006F062FF38B10321204606F074FFF5E769
:102860004FF00408D5E605B0BDE8F0830C65002004
:10287000F0B51F4690F80231A5B083B3E0238DF880
:102880000C30F3238DF80E300026F4B2E51C0B5DFE
:102890000DF1900E01365EFA85F513B105F8843C12
:1028A000F3E7131205F8843C211D24AB53FA81F1A0
:1028B00001F8842C621D53FA82F23B1202F8843C28
:1028C000E21DD3B2063424AA52FA84F4012104F89A
:1028D000847C03AA00918DF80D3006F03EFF25B0F0
:1028E000F0BDF0B590F80241A5B0BDF9A860002C8C
:1028F0003ED0E0248DF80C40F4248DF80E400027E3
:10290000FCB2E51C11F804E00DF1900C01375CFA03
:1029100085F5BEF1000F02D005F884ECF0E7111246
:1029200005F8841C24AD211D55FA81F101F8842C91
:10293000621D55FA82F2191202F8841CA21D55FA82
:1029400082F2012102F8843CE31D55FA83F332122E
:1029500003F8842C04F10903083455FA84F4DBB23B
:1029600004F8846C03AA00918DF80D3006F0F5FE92
:1029700025B0F0BD2DE9F04190F80241A4B0BDF9B9
:10298000A870BDF9AC60002C4ED0E0248DF80C404E
:10299000F5248DF80E404FF0000E5FFA8EF4E51C22
:1029A00011F804C00DF190080EF1010E58FA85F5EA
:1029B000BCF1000F02D005F884CCEEE7111205F847
:1029C000841C24AD211D55FA81F101F8842C621D6F
:1029D00055FA82F2191202F8841CA21D55FA82F2ED
:1029E000012102F8843CE31D55FA83F33A1203F8FF
:1029F000842C04F1080355FA83F3321203F8847C23
:102A000004F1090355FA83F303F8842C04F10B0352
:102A10000A3455FA84F4DBB204F8846C03AA0091FA
:102A20008DF80D3006F099FE24B0BDE8F08100224B
:102A30004FF4804102804280818082718260027303
:102A40007047C9010180D2014942418082807047AC
:102A5000B0F9003030B583B382795AB98B4205DCC6
:102A60000123837100238360037303E0B0F9023014
:102A70008B42F5DA837903B38268B2F5166F13D807
:102A8000037B0F4DB0F904105C1C55F82330E4B201
:102A900059430B2C4FEAE131047301F30F0109B2E2
:102AA00003D90023037300E00021531C42F6DF62C8
:102AB0009342836084BF00238371084630BD00BF0A
:102AC000D0E500080022027042708270704700005A
:102AD00010B504460F4806F03BFA0E4806F0D4FA4B
:102AE000B0B16378012B10D10B4BA178094831228A
:102AF00002FB013106F0BAF9A378013303F00303B6
:102B0000A370237823B9637010BD00236370A37092
:102B100010BD00BF480B002000E60008012A0BD1C1
:102B20000A78012A0CBF01230023037006D14378E1
:102B300023B9427018467047042070470020704740
:102B4000002202604260704718235A4345F6C05382
:102B500003FB01210160704700681823B0FBF3F00C
:102B6000704703680BB10123436070470023436043
:102B7000704743681BB102680AB10B444360704759
:102B80004068003018BF01207047026832B14368C6
:102B900033B19A422CBF0020012070471046704785
:102BA0001846704770B504460625002686F00106D3
:102BB00031462046FDF73AFE31462046FDF746FEF7
:102BC00031462046FDF74AFE31462046FDF74EFECF
:102BD00031462046FDF752FE31462046FDF756FEAF
:102BE00031462046FDF75AFE013DFA212046FDF709
:102BF00081FE15F0FF05D9D129462046FDF72EFEAE
:102C000029462046FDF732FE29462046FDF736FECE
:102C100029462046FDF73AFE29462046FDF73EFEAE
:102C200020460121FDF71AFE2046FA21FDF762FE3B
:102C300020460121FDF71AFE2046FA21FDF75AFE33
:102C400020460121FDF71AFE2046FA21FDF752FE2B
:102C500020460121FDF71AFE2046FA21FDF74AFE23
:102C600020460121FDF71AFE2046FA21FDF742FE1B
:102C700029462046FDF712FE2046FA21FDF73AFECE
:102C800029462046FDF702FE2046FA21FDF732FED6
:102C900029462046FDF7F2FD2046FA21FDF72AFEDF
:102CA00029462046FDF7E2FD2046FA21FDF722FEE7
:102CB00029462046BDE87040FDF7D0BD2DE9F74F0D
:102CC000002504464FF4167100F8045B05F018FF68
:102CD0004FF4FA7104F1180005F012FF4FF4167169
:102CE00004F12C0004F0B7FA1022294604F13C004C
:102CF0000AF038FB04F1980B04F14C030093E564EF
:102D000025656565A565A4F85C5025666566A4F82B
:102D10006850E5662567A4F87450A567E567A4F8D0
:102D20008050C4F88450C4F88850A4F88C50C4F87B
:102D30009050C4F8945004F592795B4623F8025BF6
:102D40004B45FBD104F5BA784B46002223F8022B01
:102D50004345FBD104F5D8774346002223F8022BE4
:102D6000BB42FBD104F523763B46002223F8022B1D
:102D7000B342FBD104F541723346002123F8021B14
:102D800093424FF00005F9D14FF48043A4F8063385
:102D9000A4F80833A4F80A33A4F80C33A4F80E33CB
:102DA000A4F81033A4F81233A4F81433A4F816339B
:102DB0004FF40063A4F81833A4F81A33012384F8FD
:102DC0002433294684F8045384F81C53C4F8205350
:102DD00084F82553A4F82653A4F82853C4F82C5398
:102DE00084F830538C22584601930AF0BBFA2946E6
:102DF000502248460AF0B6FA29463C2240460AF0DC
:102E0000B1FA2946DC2238460AF0ACFA2946782283
:102E100030460AF0A7FA1022294600980AF0A2FAD2
:102E2000019BE363009B2364194B63642A23A4F88A
:102E30005C30184B63660C23A4F86830164B23678C
:102E40000623A4F87430154BE3675223A4F88030AE
:102E5000134BC4F888302023A4F88C30114BC4F8ED
:102E60009430204684F84850C4F860B0C4F86C90A0
:102E7000C4F87880C4F88470C4F89060FDF700FB53
:102E80002046FFF78FFE204603B0BDE8F08F00BF5D
:102E9000680100208C0100206A00002080010020D1
:102EA00082000020260100202DE9F0479946037892
:102EB000089E04460D469046002B51D090F83033C2
:102EC000002B4DD1274B1A7832B990F80413012208
:102ED00051401A70FDF7B2FC691E09291BD8DFE8C2
:102EE00001F005080B0E11141A1A1A17B4F90A5337
:102EF00013E0B4F90C5310E0B4F90E530DE0B4F93B
:102F000010530AE0B4F9125307E0B4F9145304E083
:102F1000B4F9165301E0B4F908534FF0000A04F174
:102F20001807D1451CD038F91A10B4F81A33694380
:102F3000C91301F30F01194489B2B1F5805F22BFB3
:102F4000B4F828330133A4F828330EB9324601E02F
:102F500016F80A20384605F028FE0AF1010AE0E7D3
:102F6000BDE8F08708650020183005F0DCBD0000E2
:102F700038B5054B1A788A420D461C4601D0FDF73C
:102F800065FC257038BD00BF8933002080F825130B
:102F9000704700002D4A13788B4270B504460E46E8
:102FA000154651D0013B092B21D8DFE803F0050974
:102FB0000D1115192020201D0021FDF74FFC16E0F2
:102FC0000021FDF753FC12E00021FDF757FC0EE055
:102FD0000021FDF75BFC0AE00021FDF75FFC06E045
:102FE0000021FDF763FC02E00021FDF771FC731E78
:102FF000092B28D8DFE803F0050A0F14191E27272C
:10300000272301212046FDF729FC1CE00121204651
:10301000FDF72CFC17E001212046FDF72FFC12E004
:1030200001212046FDF732FC0DE001212046FDF78D
:1030300035FC08E001212046FDF738FC03E00121C2
:103040002046FDF745FC2E7070BD00BF8833002080
:1030500038B5057804464DB9FDF7ECFA0123237025
:1030600029462046BDE83840FFF794BF38BD000030
:10307000F0B5D0F82033027801338DB00446C0F8A3
:1030800020336AB3D0F82C234BF67F339A4214D9FD
:10309000A64B1B785A1E052A0CD8022B06D1A44B2E
:1030A0001B781BB10021A34801F0F4FE002120464B
:1030B000FFF770FF0023C4F82C33D4F8202345F623
:1030C000BF539A421BD994F82413002381F00101C5
:1030D000C4F8203384F824132046FDF7A7FB0EE044
:1030E00095498B4240F2B38190F82413C0F8202315
:1030F00081F0010180F82413FDF798FBA7E194F813
:103100001C3323B12046FDF785FB84F8300304F11E
:10311000180005F02AFD20B9854B1A78002A40F0E6
:103120008F81271D384605F020FD012840F28F8150
:10313000002502AB5A190AA9384605F05DFD04AB1B
:1031400003EB450104F12C0004F0F8F894F8253362
:103150005BB1BDF828301BB140F6FF72934204D139
:10316000B4F826330133A4F82633B4F81823BDF895
:1031700028309B1AB4F906231BB203AE5343DB136A
:1031800003F30F0326F815300135022DD1D194F841
:103190003033002B40F05B812A4608A9304609F005
:1031A000DFFA2B460AAA08A904F13C0009F060FEE8
:1031B0000A9A0B9B1344BDF80C2093FBF5F31B14E8
:1031C00003F30F039BB2D21AADF81420BDF80E2002
:1031D000D31AADF81630554B1B78002B67D1574BDF
:1031E0001B7863B12B4607AA05A904F1680009F012
:1031F000E3FC2B4604AA07A9514805F0A7F9514B57
:103200001B7863B1022307AA05A904F1740009F031
:10321000D3FC022304AA07A94B4806F08BFF4B4BB3
:103220001B789BB1022306AA05A904F1800009F0CE
:10323000C3FC022307AA06A904F18C0009F0BCFC18
:10324000022304AA07A9424802F020FB414B424F47
:103250001A781D460AB93B78FBB1022307AA31460A
:1032600004F15C0009F0A8FC3B782BB1022304AA0E
:1032700007A93A4803F09CFF2B7873B1384B1B78B1
:103280002BB1022207A9374801F0C0FA05E002235A
:1032900004AA07A9344804F037FC344B1B78002BF0
:1032A00000F0D5802046FDF7B5FA0223ABE0012BF4
:1032B00012D1224B1B78002B00F0C9802B4607AAA5
:1032C00005A904F1680009F077FC2B4604AA07A9B8
:1032D0001B4805F03BF9BAE0022B4BD11D4B1B7884
:1032E000002B00F0B4802B4607AA314604F15C00A5
:1032F00009F062FC1A4B1B7883B10D4B1B783BB174
:10330000009502AB04AA07A9194805F077F99EE0D9
:103310002A4607A9134801F079FA98E02B4604AA37
:1033200007A9114804F0F0FB91E000BF88330020AA
:10333000086500208C3300207FA903005D02002077
:10334000A06100205E020020483F00205A020020B9
:10335000B8A000205C0200205B0200204068002032
:1033600058020020F8390020C07B002059020020BC
:1033700080130020032B11D1364B1B78002B66D015
:103380002B4607AA05A904F15C0009F015FC2B46A1
:1033900004AA07A9304803F00BFF58E0042B11D111
:1033A0002E4B1B78002B52D02B4607AA05A904F1FF
:1033B000740009F001FC2B4604AA07A9284806F06E
:1033C000B9FE44E0052B18D1264B1B78002B3ED0CC
:1033D0002B4606AA05A904F1800009F0EDFB2B4657
:1033E00007AA06A904F18C0009F0E6FB2B4604AA03
:1033F00007A91D4802F04AFA29E00A2B09D1204604
:10340000FDF708FA2B46014605AA184802F0A4FF6A
:103410001DE0632B0CD107AA314604F1680002239A
:1034200009F0CAFB022207A9114801F0E1FB0EE0F6
:10343000602B0CD1022204A90E4805F03BFE06E0E9
:10344000187094F804132046FDF7F8F969E60DB0FA
:10345000F0BD00BF5B020020406800205E0200203B
:10346000483F00205A020020B8A00020809200208F
:10347000807B00207C3300202DE9F0419DF83880CE
:1034800080F804334FEAC818A0F81683BDF94080CD
:103490009DF81C309DF818C09DF820E09DF8247020
:1034A0009DF828609DF82C509DF8304008F5006884
:1034B000DB01A0F81883BDF93C80A0F808339DF823
:1034C000343008F500684FEACC1C4FEACE1EFF01ED
:1034D000F601ED01E401DB01A0F81A839DF84480B8
:1034E000A0F806C3A0F80AE3A0F80C73A0F80E63D6
:1034F000A0F81053A0F81243A0F8143380F81C83EE
:1035000019B1CCF1000CA0F806C392B1CEF1000EB7
:103510007F4276426D4264425B42A0F80AE3A0F823
:103520000C73A0F80E63A0F81053A0F81243A0F893
:103530001433BDE8F081B0F82633003318BF0123FF
:103540000B70B0F82833003318BF01231370002329
:10355000A0F82633A0F828337047183005F072BB66
:10356000043005F06FBB0023C0F82C337047D0F84F
:103570002C03704790F830037047034630B500F1D4
:10358000180203F8041B002143F8041B9342FBD1EB
:103590001A4600F5E464002522F8025BA2424FF0CF
:1035A0000003F9D142F20F72A0F82827A0F82037C3
:1035B000A0F82237A0F82437A0F82637A0F82A3739
:1035C000C0F82C37A0F83037A0F83237A0F83437DD
:1035D000A0F83637A0F83837A0F83A37A0F83C37CB
:1035E000A0F83E3780F8403780F8413780F84237FE
:1035F00080F84337A0F8443780F8463780F84737DB
:1036000080F8483700F24A7200F6526122F8023B15
:103610008A42FBD130BD0023A0F82237A0F82A3718
:10362000A0F82037C0F82C3780F8413770470023C6
:10363000A0F82437A0F82237A0F82A37A0F82037BE
:10364000C0F82C3780F8413780F8423780F8463789
:10365000A0F8263742F20F73A0F828377047000011
:103660002DE9F047BDF82050BDF92880BDF9249020
:10367000DFF8B0E005EB4202AF1C6C1C0232BFB2B7
:10368000A4B292B2C8F1000ABE1EBA42B6B246D087
:1036900001F10C0530F815C0C9EB0C0C0FFA8CFCCD
:1036A000D4454FEAE60506F007060CDA1EF806C018
:1036B0005E5D26EA0C065E5504F00706E5101EF86E
:1036C00006C05E5D21E0BCF1000F0CDA1EF806C0FA
:1036D0005E5D26EA0C065E5504F00706E5101EF84E
:1036E00006C05E5D0EE0C4451EF806C05E5D4CEA95
:1036F00006065E5504F007064FEAE4051EF806C00C
:103700005E5D02DA26EA0C0601E04CEA06060531A7
:10371000023702345E5589B2BFB2A4B2B4E7BDE845
:10372000F08700BF75E80008B0F820372DE9F04FAA
:1037300000EB830304465B687B4823F07F435840DB
:1037400089B00F4602F07EFFC31EDBB2122B80460B
:1037500040F2E680B4F82217744DDFF8DCC1DFF8E0
:10376000DC91733989B200228E464FF47A501646A6
:103770000EF10C0334F913309D42B8BF1D46984238
:10378000A8BF1846B8F1020F94BF12F909A012F9A8
:103790000CA0BAF1010F0AD0BAF1030F05D0BAF1AB
:1037A000FF3F06D003EB430303E003EB4303F61AAA
:1037B00000E01E4401320EF1050E182A1FFA8EFE9B
:1037C000D6D1D4F82C379E4240F3AA80284440102A
:1037D0000FFA80F9281A44F631454543042345F38E
:1037E000CF350DF1180A009302955346CDF8049099
:1037F0002046FFF735FFB8F1020F4FF00008DFF861
:1038000040B143463FD84A491AF808001BF808203F
:103810000593024018F801000491504002F00CFF9B
:10382000059B049908F101081844B8F1070FC3B2C9
:10383000EAD1032B74D88FB1A4F83E57A4F83C57B3
:10384000A4F83A57A4F83857A4F83697A4F8349750
:10385000A4F83297A4F8309700230BE094F840378F
:1038600004EB43020133DBB2032BA2F83857A2F872
:10387000309702D884F8403701E084F84077C4F8E4
:103880002C6740233EE02B491AF808001BF808205B
:103890000593024018F801000491504002F0CCFE5C
:1038A000059B049908F101081844B8F1070FC3B249
:1038B000EAD1032B34D88FB1A4F83E57A4F83C5773
:1038C000A4F83A57A4F83857A4F83697A4F83497D0
:1038D000A4F83297A4F8309700230BE094F840370F
:1038E00004EB43020133DBB2032BA2F83857A2F8F2
:1038F000309702D884F8403701E084F84077C4F864
:103900002C67202384F84137B4F82237A4F82437F1
:10391000A3F5C37203F20D13A4F82627A4F82837E1
:1039200009B0BDE8F08F00BF6E28760080C1FFFFB0
:10393000D2E60008CBE600085DE800087DE8000854
:10394000C4E6000880F843177047A0F84417704792
:1039500030B4B0F8264704F13C0304F51674A5B260
:103960000A469BB20024591C00EB4303B3F84A37C4
:103970001C448BB2AB42F6D14FF40773B4FBF3F4A3
:10398000C4F3072382F8223082F8234001780248EA
:10399000242330BCFDF794BF28300020B0F82A372C
:1039A000F0B501339BB20446A0F82A37B0F84407BB
:1039B00098428FB000F27E81B4F82237B4F828071D
:1039C0009842C0F07781B3F5617F80F0738104EB9A
:1039D00043000029A0F84A270183B4F8200704EB2C
:1039E000800042684FEA4202B8BF42F001024260E2
:1039F00094F846272AB9A3F5C8735A2B0FD801218A
:103A00000AE0B4F82427511E89B28B4207D3013251
:103A100092B2934203D800212046FFF785FEB4F806
:103A20002237B4F82817994240F03681B4F932377A
:103A3000B4F93067B4F938771E44B4F934371E440A
:103A4000B4F936371E44B4F93A371F44B4F93C3759
:103A50001F44B4F93E370EAD1F4494F8413705F8C2
:103A6000243D46F38F06082347F38F07A1F28E21EA
:103A7000009302972B460196842289B22046FFF7D5
:103A8000EFFD94F84137402B40F0A98004A805F0E1
:103A9000DEF80DF113030DF112020DF1150104A86A
:103AA00005F002F994F843279DF812309A4240F04D
:103AB000F38000239DF8142084F8423784F84737B8
:103AC0009DF813301A438DF814200A2B6ED8DFE8C6
:103AD00003F044395D6D6D6D061D1D6D1D0023786D
:103AE00078497948002B18BF0222B4F9243708BF5F
:103AF00001228DE8C000FEF73DFF29462046FFF772
:103B000027FF022384F84637002318E094F846374D
:103B1000022B40F0C18023786C496B48002B18BF02
:103B20000222B4F9243708BF01228DE8C000FEF755
:103B300021FF29462046FFF70BFF9DF8133084F83C
:103B40004837A9E023786249002B8DE8C000B4F91A
:103B5000243714BF022201220DE094F84637012BCE
:103B600010D123785B498DE8C000002BB4F92437CD
:103B700014BF022201225448FEF7FCFE29462046CB
:103B8000FFF7E6FE012384F8463785E094F84637D0
:103B9000012B40F0818023784F49002B8DE8C00035
:103BA000B4F9243714BF0222012209E023784B49DB
:103BB0008DE8C000002BB4F9243714BF0222012283
:103BC0004148FEF7D7FE29462046FFF7C1FE0023F5
:103BD00084F8463742F20F73A4F828375CE0202BB4
:103BE0001AD123783E493848002B18BF0222B4F975
:103BF000243708BF01228DE8C000FEF7BBFE29462E
:103C00002046FFF7A5FE012384F84637002384F8F9
:103C1000423784F847373FE094F84637002B3BD0D3
:103C200094F842370133DBB20C2B84F842370AD9BF
:103C300021782548FDF77AFE002384F8463742F2C2
:103C40000F73A4F8283794F84637012B17D194F84E
:103C5000473721781C48042B8DBF20230133DBB26A
:103C60008DF8143087BF002384F8473784F847372E
:103C70008DF814302A462223FDF722FE0CE0022B99
:103C80000AD194F848373BB143F040032946204617
:103C90008DF81430FFF75CFEB4F822370133A4F836
:103CA0002237B4F8203701339BB2042B88BF00239E
:103CB000A4F8203794F84607003018BF01200FB051
:103CC000F0BD00BFD9E600082830002010E700084A
:103CD00048E7000880E70008BBE70008F7E70008AE
:103CE00027E8000838B54FF47A61044604F11C0552
:103CF00002F078FE002222616261A26104F13C01BF
:103D00002B4623F8022B8B42FBD104F2EC4200201D
:103D100003F8010B9A424FF00001F9D1F023A4F807
:103D2000F0344FF49653C4F8F434A4F8EC14A4F827
:103D3000EE1484F8F214C4F8F8142022284609F08E
:103D400011FB0523237409236382024B6361A56180
:103D5000204638BDE0010020792A70B506460C46A1
:103D60000ED102F051FE77280CD904F1780514F831
:103D7000011F304602F08AFEAC42F8D1002070BD2F
:103D8000042070BD052070BD2DE9F043DFF888C028
:103D9000DFF888E0DFF88880DFF888908FB00023B4
:103DA00040F2772640F2657701F0C005802D90F84B
:103DB000F22402AC0DD0C02D05D085B9002A14BF65
:103DC00042464A460FE0002A14BF4FF46D723A464D
:103DD00009E0002A14BF4FF49E72324603E0002A25
:103DE00014BF7246624624F8132001338900042B65
:103DF000C9B2D9D104AA2146103008F0E1FC002351
:103E0000009304AA142303210248FFF74DF80FB0D2
:103E1000BDE8F0830C6500209BF8FFFF4CFCFFFF22
:103E2000C4FEFFFF89FDFFFF10B58EB0002404AA79
:103E300002A9042310300294039408F0C1FC0094FA
:103E4000142304AA03210248FFF72EF80EB010BD78
:103E50000C650020B0F8EC3470B504462BB1364840
:103E6000364EFFF781F8054613E002F0EFFD60B132
:103E7000334B1B78002B4DD1B4F8F05477219AB214
:103E800095423DD80023A4F8EE34B4F8EC340BB3DB
:103E9000E5E7142D4FD9B4F8EE345A1C2344A4F8A6
:103EA000EE2493F83C102046FFF76EFF3378143D64
:103EB000ADB21BB1D4F8F434C4F8F834B4F8EE243D
:103EC000B4F8EC349A42E4D30023A4F8EE34A4F816
:103ED000EC3470BDD4F8F8346BB31748FFF744F8EE
:103EE0000546142D27D92046FFF79EFFD4F8F83455
:103EF000143D013BADB2C4F8F834002BF1D170BDD4
:103F0000B4F8EC24501C2244A4F8EC04013382F8E9
:103F10003C10B4E77825204602F0DEFDB4F8EC341E
:103F2000013D5A1C234415F0FF05A4F8EC2483F846
:103F30003C00F0D1A6E770BD0C65002058020020BF
:103F40000865002001EB4101890001F5167189B275
:103F5000B1F5966F8ABF4FF49663A0F8F014A0F8FD
:103F6000F034704708B502F04FFD7823B0FBF3F052
:103F7000C0B208BD4FF496635A4380F8F214C0F8FB
:103F8000F424704738B54FF4B971044604F11C05A8
:103F900002F028FD002222616261A26104F1440165
:103FA0002B4623F8022B8B42FBD104F5277200200D
:103FB00003F8010B9A424FF00001F9D13C23A4F819
:103FC000A032A4F89C12A4F89E122822284609F0D8
:103FD000C9F90523237403236382024B6361A5613E
:103FE000204638BD3A020020292A70B506460C4604
:103FF00019D102F009FD292806D802B20B490C4854
:10400000FEF7DAF8052070BD0021304602F03EFDD3
:10401000651E283415F8011F304602F037FDA54211
:10402000F8D1002070BD042070BD00BFBDED0008B8
:10403000283000200C2A70B506460C4619D102F033
:10404000E3FC0C2806D802B20B490C48FEF7B4F882
:10405000052070BD0121304602F018FD651E0B34AD
:1040600015F8011F304602F011FDA542F8D10020DD
:1040700070BD042070BD00BFDDED000828300020B9
:1040800010B5044602F0C0FC024628B905490648AE
:10409000FEF792F8052010BD0221204602F0F6FC42
:1040A000002010BDFBED0008283000202DE9F04F66
:1040B000002397B0184601ACD05418550133532B48
:1040C000F9D10020DFF8C0E10139044605464FF080
:1040D000010C11F8018F234606462C4600270CFAE6
:1040E00007F518EA050F14BF0125002503EB0509A4
:1040F00023442B44DB0709F001090CD506F0070324
:104100001EF803B016AB03EBD60313F854AC4BEA1E
:104110000A0A03F854ACB9F1000F0ED0731C0DF16C
:10412000580909EBD30903F007031EF803A019F897
:10413000543C4AEA030309F8543C0137082F06F1BE
:104140000206234601D02C46C9E71030B0F5287F7F
:10415000BFD14B4F00213846012407EB4103073301
:10416000B1F5257F7ED216AD05EBD10515F8545C6F
:104170002E060BD513F8066C13F807CC04FA06FECE
:1041800012F80C604EEA060602F80C606E060BD5BB
:1041900013F8046C13F805CC04FA06FE12F80C6050
:1041A0004EEA060602F80C60AE060BD513F8026C58
:1041B00013F803CC04FA06FE12F80C604EEA060669
:1041C00002F80C60EE060AD51E7813F801CC04FA4A
:1041D00006FE12F80C604EEA060602F80C600E1D90
:1041E000B6F5257F03F1080301D33146B8E72B0765
:1041F0000BD510F816E000EB4606737804FA03F6C8
:1042000012F80E30334302F80E306B070CD54B1DFD
:1042100010F813E000EB43035B7804FA03F612F89E
:104220000E30334302F80E30AE070CD58B1D10F85C
:1042300013E000EB43035B7804FA03F612F80E3048
:10424000334302F80E30EB070AD5CB1D10F813608C
:1042500000EB43035B7804FA03F5935D2B4393551E
:1042600008317AE7074C013A002312F8010F195D73
:1042700001334140532B1170F7D117B0BDE8F08FD7
:1042800095E800082CEE000818EE000870B5002331
:104290009AB00C46012240F249354FF6B74632EA51
:1042A000040102A94FEA42020CBF21F8136021F871
:1042B00013500133082BD2B2F1D106AA103008F006
:1042C0007FFA0023009306AA282301210248FEF763
:1042D000EBFD1AB070BD00BF0C65002070B5A2B038
:1042E000044602F0B3FB20B9B4F89C32002B00F076
:1042F0009E80204602F0EBFBB4F89C5200283BD194
:10430000002D3CD14B4B1B787BB9B4F8A052AA21AD
:104310009AB2AA424BD2B4F89C22501C2244A4F870
:104320009C02013382F84410F2E7204602F0D4FBED
:10433000204602F0D1FB01A948550135292DF7D1BE
:104340000DF132022046FFF7B1FEEA238DF830303E
:10435000B4F89C22A6238DF8313000230CA8D11884
:10436000185C14FA81F10133552B81F84400F5D122
:104370005532A4F89C221AE001281CD125B12E4800
:10438000FEF7F2FD054638E0204602F0A5FB0C25BD
:10439000B4F89C62731CA4F89C32204602F09CFB8B
:1043A0002644013D15F0FF0586F84400F0D10023B6
:1043B000A4F89E321DE002281BD1002DDFD120463B
:1043C00002F08AFBB4F89C321C4D03F1120189B251
:1043D00000229818565D14FA80F00132062A80F8FF
:1043E0004460F6D106339BB29942F1D1A4F89C12F5
:1043F000DDE7B4F89C32D3B1C1E7282D17D9B4F862
:104400009E325A1C2344A4F89E2293F8441020465E
:10441000FFF73CFFB4F89E22B4F89C32283D9A4244
:10442000ADB2EAD30023A4F89E32A4F89C3222B0A5
:1044300070BD00BF086500200C65002020EE00085C
:1044400001EB4101490001F5967189B2B1F5167F82
:104450008ABF4FF41673A0F8A012A0F8A0327047DC
:1044600008B502F0D1FA0D23B0FBF3F0C0B208BDDD
:1044700030B5034600F11402002143F8041B9342B7
:10448000FBD100F23C54002523F8025B9C424FF024
:104490000002F9D142F20F73A0F83C25A0F83E25A6
:1044A000A0F84035C0F84425A0F84825A0F84A25D2
:1044B00080F84C2530BD0023A0F83E35A0F83C35EF
:1044C000C0F84435A0F84A35A0F8483542F20F73D9
:1044D000A0F84035704700002DE9F047BDF8206096
:1044E000BDF928C0BDF9248006EB4202B51C741C3E
:1044F0000232344EADB2A4B292B2CCF10009A5F1B1
:10450000020EAA421FFA8EFE59D000EB4107B7F8FF
:1045100014A0C8EB0A0A0FFA8AFACA454FEAEE0756
:104520000EF0070E0FDA16F80EA013F807E02EEAC9
:104530000A0E03F807E004F0070EE71016F80EA0C5
:1045400013F807E027E0BAF1000F0FDA16F80EA013
:1045500013F807E02EEA0A0E03F807E004F0070E4E
:10456000E71016F80EA013F807E011E0E24516F880
:104570000EA013F807E04AEA0E0E03F807E004F075
:10458000070E4FEAE40716F80EA013F807E002DA68
:104590002EEA0A0E01E04AEA0E0E03F807E001F1E6
:1045A000050E1FFA8EF7B7F5257F24BFA1F28F27DE
:1045B000BFB202350234ADB2A4B239469FE7BDE8BE
:1045C000F08700BFC1EE00082DE9F04FB0F83C25A0
:1045D00050F8223000294FEA4303B8BF43F00103EB
:1045E00040F82230B0F83E3500EB43030446998290
:1045F00050F822307E4823F07F4391B0584002F0BB
:1046000021F8022800F29B80B4F83E65794FDFF86C
:10461000F4C106F2212189B2B1F5257F28BFA6F1A8
:1046200073024FF0000E2CBF92B20A464FF47A503C
:10463000754604EB42031EF90C80B3F914309F4217
:10464000B8BF1F469842A8BF1846B8F1010F0AD05C
:10465000B8F1030F05D0B8F1FF3F06D003EB4303D9
:1046600003E003EB4303ED1A00E01D44531D9BB22E
:10467000B3F5257F28BFA2F28F220EF1010E28BFCD
:1046800093B2BEF1180F01D01A46D2E7D4F84435E0
:104690009D4254DDC3195B100FFA83F8FB1A44F6F0
:1046A0003147B1F5257F07FB03F728BFA6F173015A
:1046B0004FF0040347F3CF370DF11C0A00934FF07E
:1046C000180228BF89B20297CDF8048053462046CD
:1046D000FFF702FF0026484ADFF82CB1B1461AF86E
:1046E0000600B35C0592034016F80B00584001F039
:1046F000A3FF01364844072E5FFA80F9059AEED1F0
:10470000B9F1030F1BD83B4642463C493C48FEF7F3
:10471000AFF8B4F83E35C4F8445503F20D1292B226
:10472000B2F5257F24BF6FF4C3729B18A4F84885A7
:10473000A4F84A7534BFA4F84025A4F84035B4F86D
:104740003E25B4F8403593423CD1991D89B2B1F56C
:10475000257F28BFA3F28E21B4F94A350293B4F91C
:10476000483501934FF0080328BF89B28422009393
:10477000204607ABFFF7B0FE06A804F068FA0DF17B
:104780001B030DF11A020DF11D0106A804F08CFAAD
:1047900094F84C259DF81A309A420CD19DF81B30A4
:1047A000032B08D1C3238DF81C3007AA2223002134
:1047B0001348FDF785F842F20F73A4F84035002343
:1047C000C4F84435B4F83E3501339BB2B3F5257FC8
:1047D00028BF0023A4F83E35B4F83C3501339BB222
:1047E000042B88BF0023A4F83C3511B0BDE8F08F3E
:1047F0006E28760080C1FFFF87EE000895EE000866
:1048000028300020C9EE00088EEE000870B505467D
:104810000C4601EB4206B44205D034F9021B28468F
:10482000FFF7D2FEF7E770BD80F84C157047000027
:104830000148FCF79ABF00BF2830002010B543485C
:10484000434CFDF7E5FC4348FEF712FC424B1B7856
:104850002BB12378012B02D14048FFF73FFD404B9D
:104860001B7863B12378022B09D13E4B1B781BB117
:104870003D4800F089FC02E03C48FBF789FD3C4BD9
:104880001B782BB12378032B02D13A48FFF7E2FAC9
:10489000394B1B782BB12378042B02D1374802F017
:1048A00005F8374B1B782BB12378052B02D13548FF
:1048B00004F04EFB344B1B783BB12378062B40D0E1
:1048C0003248FCF745F900283BD1314B1B782BB11E
:1048D00023780A2B02D12F4801F044F82378632B68
:1048E00002D12D48FCF7F8F923785C3BDBB2062BAC
:1048F00007D84D2222FA03F3DB0702D5274804F03C
:104900007DF823785D2B02D1254804F0BFF8237889
:104910005B2B02D12348FEF7DBF82378652B02D10D
:10492000214801F0D5FE2378663B052B02D81F48AD
:1049300003F010F9237843B91D48BDE8104005F095
:104940006BBC1248FCF754F9BFE710BD28300020BB
:10495000883300200C6500205D020020DC10002060
:104960005C020020580200208C33002064B000203C
:104970005B020020B89B00205E02002078340020FB
:104980005A020020480B00205F0200203C3100202A
:10499000590200208092002060B0002034B0002036
:1049A000B4A0002009650020460B00208C61002087
:1049B0005807002008B5FFF73BFFFFF73FFFFCE774
:1049C00008B5284803F04BF92748FFF7DBFA2748DA
:1049D000FFF74EFD264803F005FE264800F034F9A7
:1049E000254802F0D0FC2548FBF754FC244802F08F
:1049F00087F82448FFF776F9234804F0C8FE2348D7
:104A000001F086FE224800F02FFC224804F0DEF977
:104A10002148FCF76BF8214801F008FB204800F022
:104A200055F82048FCF753F91F4803F0DFFE1F48F4
:104A300004F028F81E48FEF745F81E4803F07EF8FB
:104A40001D4801F041FE1D4804F02CFB1C4805F0F8
:104A5000D0FB1C48FCF786FC1B48BDE80840FEF76D
:104A60002DB900BFA0610020DC100020F839002023
:104A7000801300208C330020C07B002064B0002015
:104A800040680020B89B0020483F00207834002078
:104A9000B8A00020480B00203C310020809200206C
:104AA000807B002060B0002034B00020B4A0002043
:104AB000096500208C610020460B00207C3300201B
:104AC00058070020283000200C65002000230360D8
:104AD0000371836000F10C0200F13C0122F8023BFB
:104AE0008A42FBD14FF0000380F83C307047000051
:104AF00037B5836890F83C2000294FEA4303B8BFDC
:104B000043F001038360531CDBB2172B00EB42021E
:104B100080F83C3088BF00239181044688BF80F82C
:104B20003C30806820F07F432D48584001F08AFDDA
:104B3000022825D82B4A04F10A0104F13A054FF462
:104B40007A5331F9020F8242B8BF02468342A8BFAE
:104B500003468D42F5D1D11A052911DD00218DF8CA
:104B600000108DF8022011121A128DF801108DF824
:104B70000320694605221C488DF80430FDF71EF815
:104B8000A06820F07F431948584001F05BFD0228DF
:104B900024D8144A04F10A014FF47A533A3431F913
:104BA000020F8242B8BF02468342A8BF03468C422E
:104BB000F5D1D11A052911DD80218DF800108DF86D
:104BC000022011121A128DF801108DF80320694687
:104BD000052205488DF80430FCF7F0FF03B030BD26
:104BE00068B4AA0080C1FFFF28300020974B550011
:104BF000F8B504460E4600251746ABB29F4222D9AF
:104C000036F915102379CA0F934209D02368B3F5FA
:104C1000004F2ABF6FF4CC7003F299131B18236066
:104C20002368227103F54C503330B0F5803F01D238
:104C3000206006E0A3F54C43CD3B23602046FFF700
:104C400057FF0135D9E7F8BD2DE9F0414FF4B971AF
:104C5000044601F0C7FE4FF4B97104F1100001F0F1
:104C6000C1FE04F12C06002323626362A36204F1F7
:104C70004C01324622F8023B8A42FBD14FF000033E
:104C800084F84C3004F14D0204F16E01002002F86A
:104C9000010B8A424FF00003F9D104F16F0884F848
:104CA0006E3004F17B07424602F8013BBA42FBD169
:104CB00004F187023B46002103F8011B9342FBD11C
:104CC00004F1AF02002103F8011B9342FBD104F170
:104CD000D702002103F8011B9A424FF00005F9D1D9
:104CE0002946A4F8D850A4F8DA50C4F8DC50C4F827
:104CF000E050C4F8E45084F8E85084F8E9502022E9
:104D0000304608F02FFB052384F820300923638404
:104D10000B4B6362A6620C220A49384608F088FAF7
:104D20000C220849404608F083FA84F8E85084F8D9
:104D3000E950C4F8E050C4F8E4502046BDE8F081E2
:104D40006002002025EF0008222A70B505460C46B7
:104D50001CD101F059FE20281AD995F8E8302BB162
:104D6000284601F04CFE002385F8E83004F12106C6
:104D700014F8011F284601F089FEB442F8D1064B11
:104D8000187838B9012385F84C3070BD042070BD07
:104D9000052070BD002070BD08650020222AF8B5EE
:104DA00005460C461FD100F11006304601F02CFEDE
:104DB00020281AD995F8E9302BB1304601F01FFEB2
:104DC000002385F8E93004F1210714F8011F30466B
:104DD00001F05CFEBC42F8D1064B187838B90123CB
:104DE00085F84C30F8BD0420F8BD0520F8BD002042
:104DF000F8BD00BF08650020092AF8B504460D4635
:104E00002CD10C2200217B3008F0ACFA144F15484D
:104E1000002202F0070ED110D35D6E5C10F80E1068
:104E20000E424FEAE30103F0070317BF6618C65CA2
:104E300010F803E096F87B3008BF631802F1010216
:104E400008BF93F87B30214414BF4EEA0303B343F9
:104E5000442A81F87B30DCD10020F8BD0420F8BD65
:104E6000E1EE000852EF0008012A11D1097801296A
:104E700007D002290CD10023C0F8E43080F8E920E3
:104E800004E00023C0F8E03080F8E81018467047CE
:104E900004207047002380F84C10C0F8DC30C0F8C4
:104EA000E030C0F8E43080F8E83080F8E93070474E
:104EB000002914BF0523002380F84C307047000000
:104EC0002DE9F0414FF63A6C0646174694B000249F
:104ED0004FF4E37240F252504FF6AE2E01F0C00391
:104EE000802B03AD0BD0C02B06D0002B0CBF63462C
:104EF000734625F8143004E025F8140001E025F885
:104F0000142001348900042CC9B2E7D10DF1140832
:104F100014220021404608F025FA23460AAA294611
:104F200006F120008DF81E7007F04AFCCDF80080D5
:104F300014230AAA02210348FDF7B6FF14B0BDE806
:104F4000F08100BF0C65002008B501F05DFD232352
:104F5000B0FBF3F0C0B208BD08B5103001F054FD4D
:104F60002323B0FBF3F0C0B208BD2DE9F04100EB04
:104F70000116044630460D4601F068FD202820D970
:104F8000D4F8DC30132B1CD905F1380354F8233046
:104F9000052B16D904F1AE0504F1CF074FF0000838
:104FA000304601F099FD05F8010FBD4205F8288C47
:104FB000F6D12123A4F8D8300023A4F8DA30BDE8D4
:104FC000F0812544002285F8E82004F14C0304F127
:104FD0006D0113F8010F83F862008B4283F83A20C9
:104FE000F7D1E6E71A4B1B78622B10B50DD100F113
:104FF000AE0300F1CF025F24002103F8014F9A4273
:1050000003F8281CF9D121231CE05F2B1CD100F1EF
:10501000AE0300F1B5025524002103F8014F93427D
:1050200003F8281CF9D103465F2203F8B62FFF24AA
:1050300000F1BD02002103F8014F9A4203F8281C39
:10504000F9D10F23A0F8D8300023A0F8DA3010BD32
:1050500088330020D0F8DC3001332DE9F041C0F86E
:10506000DC30D0F8E0300133C0F8E030D0F8E43084
:105070000133C0F8E43090F86E300B2B84BF00236E
:1050800080F86E3090F86E3004468846164600F17F
:105090006F0583B901F0DAFC38B904F1100001F0B2
:1050A000D5FC10B90C22374902E00C2204F17B0137
:1050B000284608F0BDF894F86E100322294404F144
:1050C000AF0008F0B5F8012E0CBF0823042384F8C4
:1050D0008930D4F8DC300020132B84F8870084F862
:1050E000880006D904EB061001F0B0FC003018BFB0
:1050F000012008F1FF3394F86E105E425E4129B141
:10510000B1F1090518BF0125012701E00F4601256E
:1051100094F8AF3094F8B020B8F1010F80EA060E91
:1051200043EAC0100CBF08230023002F40EA03000D
:1051300014BF802300231A4342EAC502774514BFF7
:105140000223002313437E4084F8B03094F8B1303A
:1051500084F8AF00B54214BF202600261E437545D3
:1051600014BF02250025032335430331A4F8D830AA
:1051700084F8B150002384F86E10A4F8DA30BDE84A
:10518000F08100BF25EF000838B590F84C30044698
:10519000002B47D0B0F8D8200ABB013B042B17D80E
:1051A000DFE803F003160E0813000021FFF7DDFE11
:1051B000042312E000220121FFF74CFF03230CE03F
:1051C0000121FFF7D2FE022307E0FFF70BFF06E005
:1051D00001220021FFF73EFF012384F84C30B4F890
:1051E000D830FBB11048FDF7BFFE0546142D19D984
:1051F000B4F8DA30E218013392F8AF1092F8872051
:10520000A4F8DA302046FFF75BFEB4F8DA20B4F8F1
:10521000D830143D9A42ADB2E8D30023A4F8DA3076
:10522000A4F8D83038BD00BF0C65002037B500F1B8
:105230004D040D4621220749204607F0F9FF01A839
:1052400003F005FD23460922294601A803F052FD7B
:1052500003B030BD31EF000801F0D1BB103001F0D8
:10526000CEBBD0F8DC0070470346002230B503F80F
:10527000022B00F1160123F8022B8B42FBD100F622
:105280001674002523F8025BA3424FF00002F9D107
:1052900042F20F73A0F8162FA0F8182FA0F81A3FAB
:1052A000A0F81C3FA0F81E3FA0F8203FA0F8223F26
:1052B000C0F8242FA0F8282F80F82A2F00F62C7190
:1052C00000F64C7421F8022BA1424FF00003F9D1F3
:1052D000A0F84C3F00F64E7100F66E7421F8023BC8
:1052E0008C424FF00002F9D16323A0F86E2F80F8B2
:1052F000703FC0F8742FA0F8782F30BD63220023D0
:1053000080F8702F42F20F720370A0F8183FA0F8D7
:10531000163FC0F8243FA0F81A2FA0F81C2FA0F8C1
:105320001E2FA0F8202FA0F8222FA0F84C3FA0F8A5
:105330006E3FA0F8283F80F82A3FC0F8743FA0F8DD
:10534000783F7047394BF7B54FF47A5604464FF023
:10535000000E30461F461FFA8EF5AA421FD904EBF5
:105360004105B5F91650002D06DDAF42B8BF2F46F6
:10537000A842A8BF284605E0AE42A8BF2E46AB42D1
:10538000B8BF2B4601F10A05ADB2B5F5F06F24BFE9
:10539000A1F276718DB20EF1010E2946DBE73A18C3
:1053A000334452105B10D5186D102EB2551B2DB220
:1053B0001BB21F491F480195009612B2FDF7DAFA99
:1053C00094F8703F632B04F62A7104F64A7009D1F1
:1053D0000B4623F8026F98425D84FAD1002384F8CB
:1053E000703F0BE004EB43020133DBB20F2BA2F85A
:1053F0002C6FA2F84E5F84F8703FEFD80023A4F81A
:105400004C3FA4F86E3F1A4631F8025F2A444D8C97
:1054100088422B4412B21BB2F6D112111B11A4F810
:105420004C2FA4F86E3F03B0F0BD00BF80C1FFFF5A
:1054300067EF0008283000202DE9F04FBDF8244028
:10544000BDF92C80BDF92890334D04F1020E0134D2
:105450001FFA8EFEA4B24FF0000CC8F1000A1FFA2A
:105460008CF7AEF10206BA42B6B252D900EB410750
:10547000B7F816B0C9EB0B0B0FFA8BFBD3454FEA0D
:10548000E60706F007060CDA15F806B0DE5D26EA38
:105490000B06DE5504F00707E61015F807B09F5D10
:1054A00021E0BBF1000F0CDA15F806B0DE5D26EA4C
:1054B0000B06DE5504F00707E61015F807B09F5DF0
:1054C0000EE0C34515F806B0DE5D4BEA0606DE5574
:1054D00004F007074FEAE40615F807B09F5D02DA0B
:1054E00027EA0B0701E04BEA07079F5501F10A077E
:1054F000BEB2B6F5F06F24BFA1F27676B6B20EF169
:10550000020E02340CF1010C1FFA8EFEA4B23146D9
:10551000A5E7BDE8F08F00BFD5EF0008B0F8163F53
:1055200000EB43032DE9F04F04465888C0F309000F
:1055300080F4A67089B080F0010001F083F80228A1
:1055400000F2A480B4F8186F5248DFF850C106F298
:105550002677BFB2B7F5F06F28BFA6F15A024FF019
:10556000000E2CBF92B23A4675464FF47A5104EBC6
:1055700042031EF90C80B3F916309842B8BF1846A2
:105580009942A8BF1946B8F1010F0AD0B8F1030F2C
:1055900005D0B8F1FF3F06D003EB430303E003EB74
:1055A0004303ED1A00E01D4402F10A039BB2B3F578
:1055B000F06F28BFA2F276720EF1010E28BF93B2EF
:1055C000BEF10A0F01D01A46D1E7D4F8243FAB420E
:1055D0005CDA94F8703F632B0AD10B185B10A4F8C7
:1055E0004C3FC31A44F63E104343DB13A4F86E3F0E
:1055F000B7F5F06F28BFA6F15A07B4F96E3F0293D2
:1056000028BFBFB2B4F94C3F019300260DF11C092D
:105610004B460A22009639462046FFF70DFF2378B5
:105620001D4ADFF87CB0B3420CBF4FF0010A4FF0C7
:10563000030AB04619F80600B35C0592034016F859
:105640000B00584000F0F8FF01364044032E5FFA8B
:1056500080F8059AEED1D04518D80623A4F8283F43
:10566000B4F8183FA4F81E3F03F21B7292B2B2F5D1
:10567000F06F28BF653BC4F8245FA4F81A7F34BFDD
:10568000A4F81C2FA4F81C3F012000E0002009B062
:10569000BDE8F08F80C1FFFF64EF00085AEF0008FB
:1056A000D2EF000810B50446FFF738FFA0B194F818
:1056B0002A3F8BB9C4F8743FA4F8783F01211B48F6
:1056C000FDF756FC01211948FDF760FC632384F8BF
:1056D000703F052384F82A3F94F82A3F13B1013B19
:1056E00084F82A3F94F82A3F012B1ED1B4F81E3FBC
:1056F00003F27F7292B2B2F5F06F28BF03F1FF326E
:10570000A4F8202F5A1C92B2B2F5F06F24BFA3F276
:105710007F73A4F8223F4FF0010323704FF0000382
:1057200038BFA4F8222F84F82A3F10BD0C65002052
:1057300010B50446B0F8780F58B1D4F8743FB3FBF5
:10574000F0F3C3F3072081F8310081F832303322BF
:1057500000E031220448FCF7DFF90023C4F8743F6D
:10576000A4F8783F10BD00BF2830002030B5B0F855
:10577000201FB0F8222FB0F8183F914293B0044692
:1057800007D2994208D89A4206D32046FFF7C6FEB0
:1057900002E09942F7D8F8E7B4F8182FB4F81C3FA4
:1057A0009A4269D1B4F8283F062B16D1B4F81E3FAF
:1057B00003F27F7292B2B2F5F06F28BF03F1FF32AD
:1057C000A4F8202F5A1C92B2B2F5F06F2ABFA3F2B0
:1057D0007F73A4F8222FA4F8223FC022B4F81A1F26
:1057E0002046FFF7AFFDB4F96E1FB4F94C3FB4F992
:1057F0001E2F009121482249FDF773F8B4F96E3F3E
:105800000293B4F94C3F019308230093B4F81A1F94
:1058100005ABC0222046FFF70FFEB4F8285F013D1C
:10582000ADB2A4F8285FDDB916491448FCF71EFA9A
:1058300029461548FDF79CFB29461348FDF7A6FBB2
:105840000E48FCF79BF942F20F73A4F81C3F632348
:10585000257084F8703F84F82A5FC4F8245F0BE059
:105860006B1F5D425D4105A920468DF81450FFF77E
:105870005FFF0023C4F8243F13B030BD2830002060
:1058800088EF0008B0EF00080C6500202DE9F84310
:105890004FF0000904460F4690461E464D464E45C1
:1058A00040D038F81930D4F8742F37F91910134450
:1058B000C4F8743FB4F8162FB4F8783F04EB4202F2
:1058C0000133A4F8783F53885B009BB20029B8BF2E
:1058D00043F001035380B4F8183F04EB4303204620
:1058E000D9822378012B02D1FFF740FF01E0FFF7B7
:1058F000D9FEB4F8183F01339BB2B3F5F06F38BF4F
:10590000A4F8183FB4F8163F28BFA4F8185F013375
:105910009BB2092B94BFA4F8163FA4F8165F09F1B7
:105920000109BCE7BDE8F8830346F0B58768C6689F
:10593000056940699C69DA699960784305FB01054E
:1059400018681F6000FB045002FB16005C681A6AAE
:105950005E6004FB1200C01300F30E0000B2D860BA
:10596000F0BD00001FB500F624140B48FDF7FCFA4B
:1059700002280FD90DF10E01204602F00CFF48B1AC
:10598000002300930DF10E0201230A210248FDF7C6
:105990008BFAEAE704B010BD0C650020002310B5B7
:1059A000044680F8343800F63800FDF7DFF804F5D7
:1059B0000460FDF7DBF804F50560FDF7D7F804F6A1
:1059C0005800FDF7D3F804F50660FDF7CFF804F6AC
:1059D0006800FDF7CBF804F50760FDF7C7F804F59C
:1059E0000060FBF749F804F58060FBF76FFC204688
:1059F000FBF76CFC04F6280003F0E4F904F624102D
:105A0000BDE8104002F0ECBE2DE9F74F9DF83440A0
:105A10009DF830509DF83CB0C4EB04149946A400A6
:105A20009DF838300193A4B29DF8483080F837389B
:105A30000F4690469DF840109DF8442080F8351898
:105A400000F6480A80F836280646002221465046CD
:105A5000FDF77AF8C5EB0511890089B2002206F638
:105A60003800FDF771F814B15046FDF77AF8019B44
:105A70000C9342464B4639463046CDF834B003B01D
:105A8000BDE8F04FFBF704BB2DE9F047BDF82470EB
:105A90009DF820609DF828500446884691460021D4
:105AA0003A4600F506609A46FDF74EF82EB13A46A2
:105AB000314604F65800FDF747F809950895534616
:105AC0004A46414604F58060BDE8F047FBF7E0BA7E
:105AD0002DE9F74F04469DF844E09DF8480084F80E
